:020000040000FA
:10000000A0120020E9040000000000000000000031
:1000100000000000000000000000000000000000E0
:1000200000000000000000000000000000000000D0
:1000300000000000000000000000000000000000C0
:10004000F304000043050000BB05000007050000A5
:1000500000000000000000001B0500002F0500004C
:1000600093050000A705000000000000CF05000078
:10007000570500006B0500007F0500000000000030
:1000800000F002F800F04BF80CA030C80838241833
:100090002D18A246671EAB4654465D46AC4201D1C0
:1000A00000F03DF87E460F3E0FCCB64601263342A7
:1000B00000D0FB1AA246AB4633431847E037000096
:1000C00000380000103A02D378C878C1FAD8520735
:1000D00001D330C830C101D504680C6070470000FE
:1000E0000023002400250026103A01D378C1FBD854
:1000F000520700D330C100D50B60704710B564299A
:1001000002D103F0A5F810BD782902D103F0D6F88A
:1001100010BD002010BD1FB51FBD10B510BD03F0F0
:100120002BFB1146FFF7F7FF00F024F803F043FB29
:1001300003B4FFF7F2FF03BC01F0CFFB70B5054637
:100140000C46164602E00FCC0FC5103E102EFAD218
:10015000082E02D303CC03C5083E042E07D301CCDE
:1001600001C5361F03E021782970641C6D1C761EC2
:10017000F9D270BD02F004FF01F057FD00F01AFC47
:1001800060201B49086000231A461946184601F0F2
:10019000F4FD062303221146104601F099FD1820B4
:1001A0001449086002F0B4FD02F0ACFD00F00BFE53
:1001B00000F0FEFD0324002512E00AE02A46214655
:1001C000182002F0D4FD6D1C002600E0761C642E81
:1001D000FCDB1F2DF2DB641C0A2C00D1032400255C
:1001E0001F2CEADB04A003F025F800BFFEE70000A7
:1001F00000000C5200002852646F6E650D0A00006A
:1002000070B505460C46E007C00F002803D028460D
:1002100001F04EFD02E0284601F03AFD70BD10B538
:1002200004462006C10F9448FFF7EAFF6006C10F9D
:100230009148401CFFF7E4FFA006C10F0320000215
:10024000FFF7DEFFE006C10F8B48C01CFFF7D8FFA9
:100250002007C10F8848001DFFF7D2FF6007C10FBC
:100260008548401DFFF7CCFFA007C10F19204001B2
:10027000FFF7C6FFE107C90F7F48C01DFFF7C0FFAA
:1002800010BD10B504462006C10F33200001FFF752
:10029000B7FF6006C10F78483330FFF7B1FFA00603
:1002A000C10F75483430FFF7ABFFE006C10F72484D
:1002B0003530FFF7A5FF2007C10FCD208000FFF7E5
:1002C0009FFF6007C10F6C483730FFF799FFA00709
:1002D000C10F69483830FFF793FFE107C90F66483F
:1002E0003930FFF78DFF10BD10B504466006C10F11
:1002F00061480C30FFF784FFA006C10F31200001D8
:10030000FFF77EFFE006C10F5B481130FFF778FF73
:100310002007C10F58481030FFF772FF6007C10F68
:1003200055480F30FFF76CFFA007C10FC3208000B6
:10033000FFF766FFE107C90F4F480D30FFF760FF79
:1003400010BD10B504462006C10F4B48401EFFF7F4
:1003500057FF6006C10FBF208000FFF751FFA006C6
:10036000C10F4548C01EFFF74BFFE006C10F4248D2
:10037000001FFFF745FF2007C10F3F48401FFFF751
:100380003FFF6007C10F5F20C000FFF739FFA007E4
:10039000C10F3948C01FFFF733FFE107C90F3648C7
:1003A0000838FFF72DFF10BD10B504462178F22064
:1003B000FFF726FF6178F320FFF722FFA178F420F2
:1003C000FFF71EFFE078FFF72AFF2079FFF759FFBC
:1003D0006079FFF789FFA079FFF7B3FFE17926483D
:1003E0002030FFF70DFF217A23482330FFF708FF65
:1003F000607A8007C10F20489530FFF701FF607ACF
:10040000C107C90F1D48FFF7FBFEA17A112080012B
:10041000FFF7F6FE10BD0020194988700120052164
:1004200009070860704710B516480068082108439E
:10043000144908600846016813A002F0FBFE10BDD5
:1004400010B510480068082188430E490860084626
:10045000016815A002F0EEFE10BD10B51AA002F062
:10046000E9FE2048008880B205490870000A4870FB
:100470000120887010BD0000FE0200003F04000053
:100480000000002000E100E041444320696E7465F3
:10049000727275707420656E61626C65643A2030AA
:1004A0007825782E0A00000041444320696E746567
:1004B00072727570742064697361626C65643A204D
:1004C000307825782E0A000041444320636F6E7611
:1004D000657273696F6E20636F6D706C6574652EE5
:1004E0000A000000000004504149424808604248A8
:1004F000004701B5012080F3108802F083FE002040
:1005000080F3108801BD01B5012080F31088FFF74A
:10051000A4FF002080F3108801BD01B5012080F305
:10052000108801F09DF8002080F3108801BD01B50E
:10053000012080F3108801F085FA002080F31088F4
:1005400001BD01B5012080F3108800F0CEF9002034
:1005500080F3108801BD01B5012080F3108800F000
:10056000C9F9002080F3108801BD01B5012080F396
:10057000108800F0C3F9002080F3108801BD01B598
:10058000012080F3108800F0BEF9002080F310886D
:1005900001BD01B5012080F3108801F029F9002088
:1005A00080F3108801BD01B5012080F3108801F0AF
:1005B000D6F8002080F3108801BD01B5012080F33A
:1005C000108800F007FA002080F3108801BD01B503
:1005D000012080F3108800F0FEF9002080F31088DD
:1005E00001BD000005480649064A074B7047000058
:1005F00000E100E00000000081000000A0060020F3
:10060000A0120020A00A0020A00A0020C048006814
:10061000000C0004BE4908607047BD480068012115
:100620000843BB4908607047B9480068400840006B
:10063000B74908607047B648006801214840B4498E
:1006400008607047B248006802210843B04908605A
:100650007047AF48006802218843AD490860704781
:10066000AB48006802214840A94908607047A84883
:10067000006804210843A64908607047A448006840
:1006800004218843A24908607047A14800680421FA
:1006900048409F49086070479D480068082108430A
:1006A0009B49086070479A48006808218843984928
:1006B00008607047964800680821484094490860DF
:1006C00070479348006810210843914908607047BB
:1006D0008F480068102188438D49086070478C4816
:1006E0000068102148408A490860704788480068BF
:1006F000202108438649086070478548006820210A
:100700008843834908607047814800682021484039
:100710007F49086070477E480068402108437C4953
:10072000086070477A48006840218843784908602B
:100730007047774800684021484075490860704715
:100740007348006880210843714908607047704809
:100750000068802188436E49086070476C480068D3
:10076000802148406A490860704769480068FF2155
:100770000131084366490860704765480068FF21F9
:100780000131884362490860704761480068FF2171
:10079000013148405E49086070475D4800680121AA
:1007A000490208435A4908607047594800680121C6
:1007B000490288435649086070475548006801213E
:1007C0004902484052490860704751480068012179
:1007D000890208434E49086070474D48006801216E
:1007E000890288434A4908607047494800680121E6
:1007F0008902484046490860704745480068012121
:10080000C902084342490860704741480068012115
:10081000C90288433E49086070473D48006801218D
:10082000C90248403A4908607047394800680121C8
:1008300009030843364908607047354800680121BC
:100840000903884332490860704731480068012134
:10085000090348402E49086070472D48006801216F
:10086000490308432A490860704729480068012164
:1008700049038843264908607047254800680121DC
:100880004903484022490860704721480068012117
:10089000890308431E49086070471D48006801210C
:1008A000890388431A490860704719480068012184
:1008B00089034840164908607047154800680121BF
:1008C000C9030843124908607047114800680121B4
:1008D000C90388430E49086070470D48006801212C
:1008E000C90348400A490860704710B509A002F0E2
:1008F000A1FC10BD10B500F06EF810BD10B50FA032
:1009000002F098FC10BD10B516A002F093FC10BDCB
:100910000000045345787465726E616C20496E74F2
:10092000657272757074204750494F332074726934
:100930006767657265640D0A00000000457874659C
:10094000726E616C20496E746572727570742047A6
:1009500050494F39207472696767657265640D0A82
:100960000000000045787465726E616C20496E74F9
:10097000657272757074204750494F31302074721F
:10098000696767657265640D0A00000010B5202173
:10099000B04802F0A5FDB048AE498861B92080009A
:1009A000C86110BDAB48407870470320C002AB4916
:1009B0000860704710B500F006FAFFF7F6FF00BFB9
:1009C000FFF7F0FF0028FBD000F0AEF9A4A002F082
:1009D00031FC10BD7047F0B58DB000200C9001F0D7
:1009E00093F8054601F094F8079001F095F8069009
:1009F00001F096F8059001F097F8049001F098F84E
:100A0000039001F099F8029001F09AF801907F208C
:100A10002921490608608F480078401C8D490870DC
:100A2000292040060768944800680B900B98000442
:100A3000C0190A9091480768914800680B900B987C
:100A40000004C01909908F4807688F4800680B9010
:100A50000B980004C4198D4807688D4800680B90F6
:100A60000B980004C6198B4807688B4800680B90E8
:100A70000B980004C019089000202921490608603D
:100A8000864808607348007802286FDD8449099819
:100A900088420AD2002D07D10798401E07900A25E8
:100AA00003206C49087000E06D1E7E490998884259
:100AB0000AD91F2D07D10798401C07901425032041
:100AC0006449087000E06D1C2946079802F0C7F8D9
:100AD000079801F03DF8284601F036F85D48806936
:100AE000B0420FD25B4880696438B04205D25948A1
:100AF000C069C01E5749C86104E05648C069401E1D
:100B00005449C86153488069B0420FD9514880693F
:100B10006438B04205D94F48C069C01C4D49C8610E
:100B200004E04C48C069401C4A49C8614949C86949
:100B300002F056F95C48844203D90698401C06909E
:100B40000DE05A48844203D90598401C059006E000
:100B500056484138844202D90498401C04905448B5
:100B6000844204D20698401E06900FE03DE04F48B4
:100B7000A038844203D20598401E059006E04B48F9
:100B80005F38844202D20498401E0490049800907A
:100B90001F210846059B069A02F0AAF9069800F064
:100BA000DBFF059800F0DCFF049800F0DDFF414911
:100BB0000898884202D90198401C01903D49C839E3
:100BC0000898884202D20198401E019000220199A3
:100BD000029802F00AF8029800F0CEFF019800F0A7
:100BE000CFFF02F095F802F08DF8069823462A46CA
:100BF000009031A0099902F01DFB1648C0693346E8
:100C0000009032A0049A059902F014FB35A0019AD5
:100C1000089902F00FFB0F480078192817D103201C
:100C2000C0020E498031086000200A490870012086
:100C300048700A984860084684600898C86008466A
:100C400006610998486100202921490608600DB015
:100C5000F0BD0000A4000020C6D1030000E100E0C8
:100C600043616C6962726174696F6E20636F6D704D
:100C70006C6574650D0A00000000045200001052FB
:100C8000000014520000185200001C5200002852AC
:100C900000002C520000305200003452FF3F000090
:100CA000C8781E0038901E00980F0300900D0300B6
:100CB000E80A0300646A180048463D25642D25644F
:100CC000202020324D3D25642D2564002C25642CE8
:100CD00025642020204C433D25642D2564202020C0
:100CE0000000000049463D25642D25640D0A0000E2
:100CF0006820F74908600620F6490860704770B51B
:100D000005460C4622462946F34802F08AFBF24883
:100D10000121890788600846C4600120086070BD11
:100D2000102081060860704700B5FFF7F9FF012029
:100D30004003EA4908600020E549086000BD022040
:100D400041070860704700B5E3481438007801286F
:100D500002D1FFF7F4FF09E0DF48143800780228D9
:100D600004D10120DE49C871FFF7DEFF00BD70B578
:100D700004460D460120D84914390870D94800F0BE
:100D8000CCFD29462046FFF7BAFFFFF7B1FF00F080
:100D9000FDFD7D2109014618304600F0F0FD0021DF
:100DA000D148017700BFD048007F0028FBD070BD3C
:100DB00001204003C94908600520C00208600420E2
:100DC0000107086070475820C14908600120C149E7
:100DD0000860C14880304121090648611020810621
:100DE0000860704770B505460C460220BA491439B0
:100DF0000870FF2D01DC284600E0FF20B8492039AB
:100E00000877002C02D0B74800F087FD0021B448D5
:100E10000172FFF7D8FFFFF7CBFF002C07D000F0DF
:100E2000B5FD7D2109014618304600F0A8FD0020DF
:100E3000AB49C87100BFAA48C0790028FBD070BD7B
:100E400010B504462146FF20FFF7CCFF10BD7047C8
:100E500000B50246FFF768FF0121A348017700BDF6
:100E600001219F4A11727047A0480068704710B571
:100E700001F0A5FE10BD9C488038407D7047FFB54D
:100E800081B00C4615461E460A9F01F0A9FE553852
:100E900040B2307001F0A1FE38708F486C30007D98
:100EA00020702078A84205DC22788B498131019896
:100EB00002F0B7FA05B0F0BD1CB504460020019061
:100EC000FF2189481D3002F009FB8548401D009034
:100ED0002538027F0346243301A9E338FFF7CFFF0B
:100EE000FFF7C9FF00281DD07D482038007FFF286C
:100EF00006D07B482038007F69460979884211D1A5
:100F0000FFF7B5FF76492039C862FFF7ADFF744996
:100F1000203908630846026A6846017972481D3024
:100F2000904703E0FFF74FFFFFF742FF00206C49B7
:100F300008720120C8711CBD0FB4F0B58BB01298B7
:100F4000049010A8407903900020029010A8007827
:100F5000012802D166A0019001E068A0019010A8CC
:100F60000079022815D110A8077C407C099010A8B0
:100F7000807C0890781CC0B2079000BF0998401C84
:100F8000C0B2069000BF0898401CC0B2059000BFD8
:100F90000FE010A8C77C807D079010A8007D099005
:100FA00010A8C07D069010A8407D089010A8007E73
:100FB000059000BF63E03C465EE0099D57E0089E57
:100FC00050E008A804724572867210A800790128C2
:100FD00005D133462A4621464AA002F02BF900BF2C
:100FE00032462946204601F0C2FE10A800780228A9
:100FF00005D110A948790121FFF7F4FE1EE010A8E1
:10100000007801281AD1009007E02021129A009858
:1010100011540098401CC0B2009010A8417900986B
:101020008142F2DC1298049000BF139B0A9A039944
:101030000498984703990498FFF799FE0298401C7A
:10104000029010A80221415E0298814208D135A089
:10105000029902F0EFF80BB0F0BC08BC04B01847DE
:10106000701CC6B205988642ABDB681CC5B20698F8
:101070008542A4DB601CC4B2079884429DDB9AE7DA
:1010800070B506460D4636A002F0D4F8002407E0FD
:1010900015481D30015D39A002F0CCF8601CC4B2C7
:1010A000A81EA042F4DC36A002F0C4F870BD0C49C2
:1010B00020390862704708491439086170470649A9
:1010C0001439C860704704491439886070470000BB
:1010D0000000285200004052800200200000105200
:1010E0000C050020470D0000EC03002000005452C6
:1010F0007472616E736D69740000000072656365DF
:1011000069766500636F617273653D25642C206D9F
:101110006964646C653D25642C2066696E653D25B7
:10112000640D0A0053746F7070696E672072782FB7
:101130007478206173207765206861766520726518
:101140006365697665642F7472616E736D6974741A
:101150006564202564207061636B6574730A000008
:101160005265636569766564205061636B65742EB2
:1011700020436F6E74656E74733A200025642000FE
:101180000A000000FE494860704710B55721C900A9
:10119000FB4802F0A5F9FB49FB488165C91F816145
:1011A0000F21803001834020F84908601F20890505
:1011B000486108200862F648FFF7E4FFF548FFF7AA
:1011C00082FFF548FFF77BFFF448FFF774FFF44810
:1011D000FFF76DFF10BD10B5044621460B398A009C
:1011E000E9491831885801F0FBFD10BD10B50446DF
:1011F00021460B398A00E4495831885801F0F0FD46
:1012000010BD70B505460C460B21DF480175012C59
:1012100002D0022C0AD104E0DB49087DFFF7E6FF8B
:1012200005E0D949087DFFF7D6FF00E000BF00BF09
:1012300070BD01208007006810218843890608607E
:101240007047F7B584B000BF00F076FC019000F065
:1012500077FC0090CA488030007D0290CA488030F8
:10126000408B401C81B2C848803041830025029ADF
:10127000D100CC4B069A5A43104602F03DF9039038
:10128000092407E06000C849095A601C4000C64AAA
:101290001152641E002CF5DA039800B2C24908808E
:1012A000002407E06000C049085EC049095D48436A
:1012B0004519641C0A2CF5DD2846E917C90D0918E3
:1012C0004F12B1488030418B008B814216D17D2076
:1012D000C000874207DD0098421C014600920022B0
:1012E000019801F082FCB248874207DA0098421E5A
:1012F000014600920022019801F077FC019800F06D
:101300003BFC009800F03CFC0025059819286DD2A4
:10131000092407E0A000A7490958601C8000A54ADD
:101320001150641E002CF5DAA249049808600024CC
:1013300007E0A0009F4908589C49095D48434519AA
:10134000641C0A2CF5DD2846E917C90D09184E1250
:101350008D488030418B008B814247D14120C000B5
:1013600086421DD98848007D0B3881008648183098
:101370004058401C8449097D0B398A008249183144
:1013800088508148007D0B3881007F485830405894
:10139000401C7D49097D0B398A007B4958318850B2
:1013A000FF20E13086421DD27748007D0B38810056
:1013B000754818304058401E7349097D0B398A0022
:1013C0007149183188507048007D0B3881006E4893
:1013D00058304058401E6C49097D0B398A006A49D3
:1013E00058318850002168488030418307B0F0BDF3
:1013F0004020664908607047402064498031086099
:1014000070476D48008800B27047F1B5A2B0402126
:1014100012A802F065F8442101A802F061F85A49C7
:101420002298886100245BE0A2005749183188584F
:1014300001F0D6FC00202921490608605F480860B9
:10144000012700E07F1C7D20C0018742FAD37F2066
:101450002921490608605A4805685A480668300438
:101460004019A10012AA5050611C4900454AFE32A1
:101470008918129A514308464249FE3102F032F867
:10148000611C890001AA5050002C1CDDA00012A98B
:101490000958A00010581438814209D2A1003A48D6
:1014A00018304058401CA2003749183188500AE0D3
:1014B000A1003548183040582830611C8A00324954
:1014C00018318850641C002C0AD1A1002E48183015
:1014D00040582830611C8A002B4918318850641C00
:1014E000102CA1DB002400E0641C102CFCDB129803
:1014F00023B0F0BDF0B5B3B005460E460024402140
:1015000021A801F0EDFF442110A801F0E9FF2022FD
:101510002D4908A8FEF712FE20222B4920316846EB
:10152000FEF70CFE1848856572E0A2001649583196
:10153000885801F055FC00202921490608601F4801
:1015400008600120319002E03198401C31907D21EB
:10155000C90131988842F7DB7F20292149060860BC
:101560001748076817480068329032980004C0197D
:10157000A10021AA505062006B46995A620025E0F2
:101580006C020020C30200006C03002000E100E0B8
:101590004F0E0000510E0000610E0000B90E000059
:1015A00081100000093D00005402002014000020BA
:1015B00018FCFFFF2000002000006452FF3F0000E5
:1015C0000000285200002C52E037000008AB9A5A65
:1015D0007243104601F086FFA10010AA5050A000EF
:1015E00021A90958A0001058401F814207D2A1002C
:1015F00098484058401CA2009649885008E0A10035
:10160000944840582830611C8A0092498850641CD4
:10161000102C8ADB33B0F0BD70B504462046FFF7CE
:10162000F4FE05468C4800F033FBFF202B3000F021
:101630003FFBFF20343000F03BFBFF20F93000F08F
:1016400027FBFF20FB3000F033FBFF20FD3000F0D4
:101650002FFB29462046FFF74DFFFFF765FB70BDC6
:1016600070B5012080070469C569FFF700F8FFF72E
:1016700052F80121774858384175002D08D00820CC
:101680002840002803D0002172485838417500BF17
:10169000012080074562E007C00F002806D0012026
:1016A0008007806901210843890788610220204062
:1016B000002810D069484068002805D02122520631
:1016C0005068664A51688847012080078069022176
:1016D00008434907886104202040002810D05F4853
:1016E0008068002805D02122520650685B4A916824
:1016F0008847012080078069042108430907886121
:1017000008202040002810D05448C068002805D088
:10171000212252065068514AD1688847012080072B
:10172000806908210843C9068861102020400028EC
:1017300010D04A480069002805D02122520650687E
:10174000464A1169884701208007806910210843B3
:1017500089068861FEF792FFFEF7E4FF70BD70B561
:101760003F4805683F480668300440193E4909680B
:1017700089003E4A50503C480068401C3A49086085
:101780003B48006820210843394908600846006842
:101790003849086036480068202188433449086089
:1017A00008460068334908602F4800680A281ED19F
:1017B000012406E0A0002D4A11582FA001F03AFDA7
:1017C000641C0A2CF6D3FF2001302D49086040002C
:1017D0002B4980390860002023490860002400E07C
:1017E000641C28488442FBD327482849C86070BD40
:1017F00010B51F4A126860231A431D4B1A601A461F
:1018000012681C4B1A601A4A126860239A43184BDC
:101810001A601A461268174B1A6001225202184BBE
:10182000803B1A605210164B1A605200184B1A6017
:101830000B4A10680B4A11680A0412180A4B1B68FD
:101840009B000A4CE250084A1268521C064B1A6070
:1018500010BD0000C4030020CB0300006C02002078
:10186000000044520000485204000020C400002040
:101870001000002000000C5225580D0A0000000046
:1018800080E100E0102700000400FA0500ED00E010
:1018900080E200E0014600207047512109060870EF
:1018A000704710B55124240623781846FFF7F5FF3A
:1018B000184610BD10B503460C461846FFF7EDFF5D
:1018C00010BD10B50446FFF7ECFF10BD10B504467F
:1018D00004492046FFF7EEFF10BD03A001F0AAFC6B
:1018E00000BFFEE74C0000200D0A5445535420442D
:1018F0004F4E450D0A00000010B52C215E4801F046
:10190000EFFD0020C04321214906886007200860C0
:1019100010BD8A00584B9850704710B504460021FE
:101920002046FFF7F6FF10BD80205449086070473D
:1019300001218140524A5163704700B50346184661
:10194000FFF7F6FF032099004E4A5158086000BD8A
:1019500030B504460D462846FFF7EFFFFFF7E4FFDA
:10196000212040064068201A4749884202D30120BE
:1019700043490863A80045490858046030BD10B5C4
:10198000044600212046FFF7E3FF10BD212040065A
:1019900040687047802039498031086070470021D5
:1019A0008200384B9A581160704700B50020FFF74D
:1019B000BFFF00BD364A50547047F0B504460D468F
:1019C000FF20F530604306462846FFF7B6FFFFF7D5
:1019D000ABFFA8002F490C50FFF7D8FF8719294605
:1019E0003846FFF7B5FFF0BD30B505460C46002080
:1019F0002949085521462846FFF7DFFF00BF264842
:101A0000005D0028FBD030BD10B5044601202249FE
:101A100008551F48005D002805D0A1001D4A5058F8
:101A20002146FFF7CAFFA00013490858002804D038
:101A3000A100114A5058804703E0214617A001F049
:101A4000F9FB10BD70B500240126FEF710FE0C480E
:101A5000008E85B200BF08E028463040002802D042
:101A6000E0B2FFF7D1FF7600641C082CF4DB0448D9
:101A70004563FEF703FE70BD2405002000E100E091
:101A80004000004284000020FFFF000064000020AE
:101A90005C0000205005002054000020696E746531
:101AA00072727570742025642063616C6C65642C9F
:101AB0002062757420686164206E6F2063616C6CB5
:101AC0006261636B20646566696E65642E0A00005E
:101AD00010B5CC21F74801F003FD1121F548803005
:101AE000C16203210163152141630F218163C16339
:101AF000F149016416214164122181641422EF49E5
:101B00001830FEF71BFB10BDEA488030C06A7047F2
:101B1000E8488030006B7047E6488030406B704783
:101B2000E4488030806B7047E2488030C06B70477B
:101B3000E0488030006C7047DE488030406C704771
:101B4000DC488030806C7047DA498031C862704769
:101B5000D849803108637047D6498031486370475F
:101B6000D449803188637047D2498031C863704757
:101B7000D049803108647047CE498031486470474D
:101B8000CC4980318864704710B5044698222146BC
:101B9000C848FEF7D3FA10BDC949014049004208C0
:101BA000C74B1A4011430846C649014089008208C4
:101BB000C44B1A4011430846C349014009010209B8
:101BC000C14B1A40114308460106FF22120202408F
:101BD00012021143020AFF231B021A401143020E94
:101BE000114308467047F3B500256C1E16E00098B7
:101BF000465D3046FFF7D0FF064600270BE0204643
:101C00007040002804DA6000B0494840044600E013
:101C1000640076007F1C072FF1DD6D1C0198854262
:101C2000E5D3E043FFF7B8FFFCBD10B5A8A001F075
:101C300001FBADA001F0FEFAB348816B0020FFF775
:101C4000D2FF0446B048C06BA04203D1AFA001F060
:101C5000F1FA04E0B0A001F0EDFA00BFFEE710BD1C
:101C6000F021014009110207120E11430846CC2150
:101C70000140891033220240920011430846AA21F4
:101C80000140491055220240520011430846704756
:101C900010B541098A00874B9A584B01C41A012399
:101CA000DB07E3409A438B00824CE25000BF10BD3B
:101CB00010B541098A007F4B9A584B01C41A012381
:101CC000DB07E3401A438B007A4CE25000BF10BDA3
:101CD000FFB505460E46174600240FE02846204172
:101CE000C007C00F002804D02046F530FFF7E0FF02
:101CF00003E02046F530FFF7CBFF641C032CEDDD3D
:101D000000240FE030462041C007C00F002804D057
:101D10002046F930FFF7CCFF03E02046F930FFF70B
:101D2000B7FF641C032CEDDD00240FE03846204192
:101D3000C007C00F002804D02046FD30FFF7B8FFD1
:101D400003E02046FD30FFF7A3FF641C032CEDDD0C
:101D500000240FE003982041C007C00F002804D0E2
:101D6000E01DFA30FFF7A4FF03E0E01DFA30FFF7B3
:101D70008FFF641C032CEDDDFFBDFFB505460E464D
:101D8000174600240FE028462041C007C00F002856
:101D900004D0E01DFE30FFF78BFF03E0E01DFE30B6
:101DA000FFF776FF641C012CEDDD002411E03046C6
:101DB0002041C007C00F002805D02046FF30083062
:101DC000FFF776FF04E02046FF300830FFF760FFA2
:101DD000641C012CEBDD002411E038462041C007D3
:101DE000C00F002805D02046FF300A30FFF760FF03
:101DF00004E02046FF300A30FFF74AFF641C012C44
:101E0000EBDD002411E003982041C007C00F00283B
:101E100005D02046FF300C30FFF74AFF04E0204693
:101E2000FF300C30FFF734FF641C012CEBDDFFBDED
:101E300030B589B005462022474901A8FEF77EF952
:101E4000002411E02846E040C007C00F002805D05C
:101E5000610001AA505AFFF71BFF04E0610001AACC
:101E6000505AFFF725FF641C0F2CEBD909B030BD89
:101E700030B589B0054620223749203101A8FEF748
:101E80005DF9002411E02846E040C007C00F00289B
:101E900005D0610001AA505AFFF70AFF04E0610073
:101EA00001AA505AFFF7F4FE641C0F2CEBD909B0BD
:101EB00030BD000070050020006A180020380000C6
:101EC00055555555333333330F0F0F0FB71DC1041D
:101ED0000D0A2D2D2D2D2D2D2D2D2D2D2D2D2D2D75
:101EE0002D2D2D2D2D0D0A0056616C6964617469CC
:101EF0006E672070726F6772616D20696E746567BE
:101F0000726974792E2E2E00C0FF000043524320C8
:101F10004F4B0D0A000000000D0A50726F6772618E
:101F20006D6D696E67204572726F72202D2043526D
:101F30004320444F4553204E4F54204D4154434875
:101F4000202D2048616C74696E6720457865637543
:101F500074696F6E0D0A00003438000000B5FF2070
:101F6000F630FFF795FEFF20F730FFF791FEFF20D8
:101F7000F830FFF78DFEFF20F930FFF789FEFF20D4
:101F8000FA30FFF795FEFF20FB30FFF781FEFF20C0
:101F9000FC30FFF78DFEFF20FD30FFF779FEFF20BC
:101FA000FE30FFF785FEFF20FF30FFF781FEF74888
:101FB000FFF77EFE01204002FFF77AFEF348801C07
:101FC000FFF766FEF148C01CFFF762FEEF48001DF8
:101FD000FFF76EFE81208000FFF76AFE0020EC49CB
:101FE0000860EC48FFF764FE00BDF3B581B00F4612
:101FF00000200090019EB800019E82193146E6A0A3
:1020000001F018F9F0A001F015F900240CE000250A
:1020100007E0A00030580121A9408843A10070507A
:102020006D1C202DF5DB641CBC42F0D300241DE0A8
:10203000002518E0A00030580121A94008400028E0
:1020400009D0A00033582A462146E5A001F0F2F855
:102050000098401C0090A00030580121A94008437E
:10206000A10070506D1C202DE4DB641CBC42DFD34A
:1020700000241FE000251AE0A00030580121A940EB
:1020800008400121A940884209D0A00033582A46BF
:102090002146DFA001F0CEF80098401C0090A0007F
:1020A00030580121A9408843A10070506D1C202D9B
:1020B000E2DB641CBC42DDD37C1E1DE01F2518E062
:1020C000A00030580121A9400840002809D0A000F4
:1020D00033582A462146DAA001F0ACF80098401C9B
:1020E0000090A00030580121A9400843A100705081
:1020F0006D1E002DE4DA641E002CDFDA7C1E1FE06A
:102100001F251AE0A00030580121A94008400121F4
:10211000A940884209D0A00033582A462146D4A0BD
:1021200001F088F80098401C0090A0003058012170
:10213000A9408843A10070506D1E002DE2DA641E94
:10214000002CDDDA002416E0002511E0A000305854
:102150000121A9400840002809D0A00033582A4690
:102160002146CFA001F066F80098401C00906D1C3D
:10217000202DEBDB641CBC42E6D3D5A0009901F016
:1021800059F80098FEBD30B50546002411E02846F8
:102190002041C007C00F002805D02046FF30ED3099
:1021A000FFF786FD04E02046FF30ED30FFF770FDBD
:1021B000641C062CEBD930BD30B50546002411E077
:1021C00028462041C007C00F002805D07149753945
:1021D000081BFFF76DFD04E06E497539081BFFF71A
:1021E00057FD641C042CEBD9052411E0284620413E
:1021F000C007C00F002805D066497539081BFFF7D6
:1022000047FD04E063497539081BFFF751FD641C65
:10221000062CEBD930BD30B50546002411E0284628
:102220002041C007C00F002805D05A49C91C6018BA
:10223000FFF73EFD04E05749C91C6018FFF728FD71
:10224000641C042CEBD9052411E028462041C0076A
:10225000C00F002805D04F49C91C6018FFF718FDB2
:1022600004E04C49C91C6018FFF722FD641C062CD1
:10227000EBD930BD30B50546002411E02846204199
:10228000C007C00F002805D042490F31081BFFF7D7
:102290000FFD04E03F490F31081BFFF7F9FC641CF8
:1022A000042CEBD9A806C00F002804D0E72080003A
:1022B000FFF7EEFC03E0E7208000FFF7F9FC68067B
:1022C000C00F002804D031482E30FFF7E1FC03E0B6
:1022D0002E482E30FFF7ECFC30BD30B5054600240B
:1022E0000FE02846E040C007C00F002804D0204679
:1022F0006B30FFF7DDFC03E020466B30FFF7C8FCD6
:10230000641C0F2CEDDD30BD30B5054600240FE018
:102310002846E040C007C00F002804D020467C308B
:10232000FFF7C6FC03E020467C30FFF7B1FC641CDD
:10233000072CEDDD30BD30B5054600240FE0284602
:10234000E040C007C00F002804D02046D130FFF77E
:10235000AFFC03E02046D130FFF79AFC641C0F2C41
:10236000EDDD30BD70B505460E4600240AE020467E
:10237000FF30D930FFF78CFC2046FF301730FFF7D5
:1023800087FC641C0D2CF2DB0024B9E0FF01000087
:1023900000002852920300000D0A0D0A5374617266
:1023A00074696E67205352414D20746573742066C2
:1023B000726F6D203078255820746F203078255842
:1023C0002E2E2E0D0A000000546869732074616B74
:1023D000657320617768696C652E2E2E0D0A0000EA
:1023E0000D0A4552524F52203120402061646472E0
:1023F00065737320255820626974202564202D2D73
:102400002056616C75652069732025580000000016
:102410000D0A4552524F52203220402061646472AE
:1024200065737320255820626974202564202D2D42
:102430002056616C756520697320255800000000E6
:102440000D0A4552524F522033204020616464727D
:1024500065737320255820626974202564202D2D12
:102460002056616C756520697320255800000000B6
:102470000D0A4552524F522034204020616464724C
:1024800065737320255820626974202564202D2DE2
:102490002056616C75652069732025580000000086
:1024A0000D0A4552524F522035204020616464721B
:1024B00065737320255820626974202564202D2DB2
:1024C0002056616C75652069732025580000000056
:1024D0000D0A5352414D205465737420436F6D7043
:1024E0006C657465202D2D202564204572726F72F5
:1024F000730D0A00FF21E531081BFFF7D9FB641CAF
:10250000AC42F7D9002405E02046FF301730FFF732
:10251000BFFB641CB442F7D970BD70B505460E46CA
:10252000002411E03046E040C007C00F002805D06D
:102530002046FF30C530FFF7BBFB04E02046FF30EC
:10254000C530FFF7A5FB641C042CEBDD002411E073
:102550002846E040C007C00F002805D02046FF30C5
:10256000CA30FFF7A5FB04E02046FF30CA30FFF772
:102570008FFB641C042CEBDD70BD70B505460E4668
:10258000002411E03046E040C007C00F002805D00D
:10259000FF215931081BFFF78BFB04E0FF21593164
:1025A000081BFFF775FB641C042CEBDD002411E015
:1025B0002846E040C007C00F002805D0FF21543155
:1025C000081BFFF775FB04E0FF215431081BFFF7E0
:1025D0005FFB641C042CEBDD70BD70B505460E4638
:1025E000002411E02846E040C007C00F002805D0B5
:1025F0002046FF30E630FFF75BFB04E02046FF306B
:10260000E630FFF745FB641C042CEBDD002411E0F1
:102610003046E040C007C00F002805D0FF2116312A
:10262000081BFFF745FB04E0FF211631081BFFF7ED
:102630002FFB641C052CEBDD70BDF8B5F94C650D66
:10264000F948006A2040F84908620846C06B2840F3
:10265000C8630846006AF549A1430843F249086285
:10266000F3484862F3488862F348C862F348086355
:10267000F3484863F34888630846C06BF249A943AE
:102680000843E949C863FF20A930FFF701FBFF2099
:10269000AA30FFF70DFB3F210846FFF79EFF0721F9
:1026A0000846FFF75FFE00210846FFF736FF0021CE
:1026B0000846FFF762FF0020FFF7EAFA0120FFF764
:1026C000E7FA6020FFF7E4FAFF201030FFF7E0FAA6
:1026D000FF20EC30FFF7DCFA6420FFF7D9FA652021
:1026E000FFF7D6FA6620FFF7D3FA6120FFF7E0FA8A
:1026F0000020D6490860D648D64908606720FFF711
:10270000D7FA0B260227F002F9010843D2490860E4
:1027100005200090D14900980860FF200E30FFF797
:10272000B7FAFF200F30FFF7B3FA0020FFF72BFDB9
:10273000F020FFF7BDFA5D20C000FFF7B9FAC848E6
:10274000FFF7B6FAC648401CFFF7B2FA0120C549A8
:102750000860F8BD70B5C44C650DB348006A2040F0
:10276000B14908620846C06B2840C8630846006A41
:10277000BE49A1430843AC490862AD484862AD4830
:1027800040308862BA48C862BA480863BA484863A9
:10279000BA4888630846C06BB949A9430843A249AF
:1027A000C8630020FFF784FA0120FFF781FA0D20AB
:1027B000FFF793FD2620FFF7A7FD5020FFF7BBFD95
:1027C000EE20FFF775FAEF20FFF772FAFF200E30C8
:1027D000FFF75EFAFF200F30FFF75AFA8420FFF769
:1027E00067FA05269D4806600A210020FFF795FE3E
:1027F0000020FFF7C8FCF020FFF75AFA0120400341
:10280000A0490860F002086070BD10B50A467F2339
:1028100083435901844B9B6F9B4C2340824CA3679D
:1028200023469B6F0B43A36710BD7F228243510356
:102830007D4A926F7F235B039A437B4B9A671A46CC
:10284000926F0A439A67704710B5F0230340190945
:102850000207754B9B6F1B091B01734CA367234633
:102860009B6F0B43A3672346DB6F1B011B09E367C9
:102870002346DB6F1343E36710BD00B57D20C00026
:10288000FFF716FA8148FFF713FA8048401CFFF75C
:102890000FFA7E48801CFFF70BFA80207C49086005
:1028A0007F20FFF7D1FF3F20FFF7BFFF00217F20F0
:1028B000FFF7ABFF00BD70B50346002400200325E1
:1028C000AD021D402C010F252D031D402D0B28436B
:1028D0003F252D011D40284395022843CD02284362
:1028E0001D072D0C2843E5436A4E3560C5436A4EEB
:1028F000356070BD002824D14B49C96F04221143B3
:10290000494AD1671146C96F02229143464AD167AD
:102910001146803109680122D2071143424A8032B0
:1029200011604149C96F49084900803AD167114691
:10293000803109680722120711433B4A8032116037
:10294000F6E0012822D13849C96F02221143364AE4
:10295000D1671146C96F04229143334AD1671146AA
:1029600080310968C20711432F4A803211602E4915
:10297000C96F8143803AD1671146803109680722C7
:1029800012071143284A80321160D1E0022823D176
:102990002549C96F04221143234AD1671146C96FE3
:1029A00002229143204AD1671146803109684A00CA
:1029B00052081D4980310A608039C96F01221143D4
:1029C000194AD1671146803109680722120711435D
:1029D000154A80321160ABE003285FD11249C96FFC
:1029E00004221143104AD1671146C96F0222914354
:1029F0000D4AD167114680310968C20711430A4A5E
:102A0000803211600849C96F49084900803AD1678E
:102A1000114680310968012292079143024A8032AF
:102A2000116085E00000FCFF70050020E0FF5040D1
:102A3000882142003100048881403B1102817E02DE
:102A40004448ED0300000160032EE0FF000038520F
:102A50000FA0000000003C5200000C520000245265
:102A6000E9020000000040520000FEFFF0FF0000FD
:102A700081400C100281180044C87F0101000170E0
:102A80000008E0FF0000105217F0FFFFE90300000C
:102A900000002C520000145200001852042822D1C9
:102AA000FD49C96F04221143FB4AD1671146C96F22
:102AB00002229143F84AD1671146803109684207E2
:102AC0001143F54A80321160F349C96F4908490042
:102AD000803AD167114680310968C2069143EE4AB7
:102AE0008032116024E0052822D1EB49C96F04220D
:102AF0001143E94AD1671146C96F02229143E64A60
:102B0000D167114680310968C2071143E24A803219
:102B10001160E149C96F49084900803AD1671146FF
:102B200080310968032252079143DB4A80321160E9
:102B3000704710B50A467F2383435901D64B9B6FDC
:102B40007F246403A343D44CA36723469B6F0B43AA
:102B5000A36710BD10B5044600213F20FFF7E9FF31
:102B60000420FFF7C7FE01221146FF20E130FFF7E6
:102B7000A2FEFD208000FFF79BF810BD70B5034654
:102B80000C467F25292676063560C44D2868C44D3D
:102B900029680D042D181D60C24D2868C24D296892
:102BA0000D042D182560C14D2868C14D29680D04FC
:102BB0002D18156000253560BE4D356070BDBE48CE
:102BC0000068012189020840002804D0BA48008822
:102BD0008005800D70470020FCE7B84800787047FA
:102BE000B74800780007000F7047F0B505460E465D
:102BF0001746002411E028462041C007C00F0028D6
:102C000005D0FF21B031081BFFF752F804E0FF2187
:102C1000B031081BFFF73CF8641C042CEBD90024EE
:102C200011E030462041C007C00F002805D0FF2129
:102C3000B631081BFFF73CF804E0FF21B631081B52
:102C4000FFF726F8641C042CEBD9012F03D19D4813
:102C5000FFF72EF802E09B48FFF71AF8F0BD70B5B9
:102C600005460E46002411E03046E040C007C00F84
:102C7000002805D0934990316018FFF719F804E057
:102C8000904990316018FFF703F8641C032CEBDDCA
:102C9000F006C00F002804D08A489430FEF7F8FFF1
:102CA00003E088489430FFF703F8002411E0284639
:102CB000E040C007C00F002805D0D7218900601868
:102CC000FEF7F6FF04E0D72189006018FEF7E0FF69
:102CD000641C012CEBDD022411E02846E040C00713
:102CE000C00F002805D0774993316018FEF7D0FF58
:102CF00004E0744993316018FEF7DAFF641C042C79
:102D0000EBDD70BD28207049086020200860704706
:102D100010B500210022252126E0002221E08B00B1
:102D20005D4CE358012494402340002B01D1212025
:102D300000E02020644B186002240346A343184699
:102D4000614B1860042318435F4B1860042403464A
:102D5000A34318465C4B1860022318435A4B186073
:102D6000521C202ADBDB491E0029D6DA10BDF7B53C
:102D700084B00546E806C00E039000BF0598C00663
:102D8000C00E029000BF0698C006C00E019000BFA2
:102D90000398FEF765FF009000BF0298FEF760FF02
:102DA000064600BF0198FEF75BFF044600BF002304
:102DB000002700BF00BF009800907820204040020C
:102DC0000343F00003430098C008034380202040E1
:102DD000C0090743324803603C48076007B0F0BDB4
:102DE000F1B584B0002700200390172002908C20BA
:102DF00001900199049800F07FFB1330C6B201994D
:102E0000049800F079FB04910299049800F074FB97
:102E10004100411803980818C5B20299049800F0BF
:102E20006BFB022800DB00BF0299049800F064FBF2
:102E3000C819C4B20F2C00DD641C22462946304656
:102E4000FFF795FF23462A46314621A000F0F2F90C
:102E500005B0F0BD01460020CA07120E1043022241
:102E60000A405201104304220A40D20010430822B3
:102E70000A405200104310220A40520810432022F8
:102E80000A40D208104340220A40520910438022CF
:102E90000A40D20910437047700500200000185204
:102EA00000001C520000285200002C52000030523A
:102EB00000003452FF3F0000000040520000545216
:102EC00000003C52D6020000000058520000205280
:102ED000636F617273653A2025642C206D69643AD2
:102EE0002025642C2066696E652025640D0A00008B
:102EF000F0B585B006460C4615461F46B5488661B6
:102F0000183044608560C760B24918310A9808617A
:102F1000B0488068B049084003463046FFF79AFF42
:102F20000006C00E04902046FFF794FF0006C00E76
:102F300003902846FFF78EFF0006C00E0290384629
:102F4000FFF788FF0006C00E01900A98FFF782FF86
:102F50000006C00E009004988006034303984005C5
:102F600003430298000403430198C00203430098FE
:102F700080010343202003439648836005B0F0BDE1
:102F800038B5FEF7A5FDFDF701FDFEF7FEF8FEF7EB
:102F9000B3FCFEF7E3FF0023012219461846FEF7B3
:102FA000ECFE0623002203210846FEF791FEFF20D7
:102FB0000130FEF75DFF8948FEF73AFF8848FEF7CB
:102FC00077FE844AD16A106BFFF749FE8448001DE2
:102FD000FEF76EFE8348FEF76BFE3120FEF768FEBB
:102FE0003020FEF765FE2F20FEF752FE2E20FEF762
:102FF0005FFE2D20FEF74CFE2C20FEF759FE2B2005
:10300000FEF756FE2A20FEF753FE75480930FEF7FC
:103010004FFE74484630FEF74BFE2920FEF748FE6F
:10302000022403E02046FEF743FE641C092CF9DB72
:10303000FFF703FBFFF721FC664A916C506C0022FE
:10304000FFF7D3FD6348C06B00906248836B1F217C
:10305000426B0846FFF74CFF61482138FEF728FE17
:10306000B9208000FFF7BCFE7D200001FFF772FD54
:10307000FFF74EFEFFF746FE38BDF8B500202921C8
:103080004906086058480860012700E07F1C57483F
:103090008742FBDB7F2029214906086054480468E9
:1030A000544805682804061908460468524805680B
:1030B0002804001900907003009900F013FAF8BD7D
:1030C00018B5444818300069424C18340090E36841
:1030D000A2686168183CA069FFF70AFF18BD70B5C7
:1030E00003460C467F25292676063560404D286824
:1030F000404D29680D042D181D60404D2868404D35
:1031000029680D042D182560354628683A4D296830
:103110000D042D18156000253560334D356070BDE8
:1031200010B500210BE003689B0F0468E40E6340B8
:10313000DA07D20F03685B0013430360491C0829B8
:10314000F1DB10BD23488038806F012109058843D9
:1031500020498039886770471E488038806F012178
:10316000090508431B49803988677047194880382A
:10317000006C0921C90688431649803908647047E4
:1031800014488038006C0921C90608431149803968
:10319000086470470F4800680121C90408430D49BD
:1031A000086070470B4800680121C9048843094939
:1031B00008607047074800680321490488430549AF
:1031C0000860704703480068032149040843014927
:1031D00008607047F00500201F000080FFFF00001E
:1031E0007B04000029020000FF3F000050C30000E4
:1031F0000000185200001C5200000452000020522F
:103200000000245210B502A000F014F810BD000018
:103210007561727420727820696E7465727275704F
:1032200074207472696767657265640D0A00000036
:10323000704700000FB4054910B503AA029800F0CA
:103240005BFA10BC08BC04B0184700004C0000201A
:10325000F7B5002575291068009914A611D0C0464D
:10326000C046002802DA404211A608E00099096829
:103270008A0701D50FA602E0490704D50EA601254D
:1032800001E0C046C046009F0024243704E000F05F
:1032900047FA30313955641C0028F8D12B463246A4
:1032A0002146009800F0CFF9FEBD000000000000AC
:1032B0002D0000002B0000002000000070B5044627
:1032C0000D4621461068C046C0462188090502D532
:1032D0000F4A7A4402E00E4A7A440E322346002115
:1032E000243305E006070009360F965D5E54491C3D
:1032F0000028F7D120780023000705D5702D03D0D2
:10330000002901D002231132204600F09CF970BD43
:103310009E050000F3B50446002081B020622046DF
:10332000E168884700287AD0252802D06268A16821
:1033300071E0E16820460025884706460020E061EC
:103340000746A0612A2E0AD0304600F041FA002834
:1033500027D0B8000019303E0090866119E002982D
:10336000BA00121902C8916102902046E1688847AC
:10337000012F064617D1E06900281FDA2020854377
:103380001CE000980A218069484300998019303870
:1033900088612046E1688847064600F019FA00284F
:1033A000EFD1012F0AD02E2E08D12046E1688847A0
:1033B0000646202005437F1C022FC3DBA06900289E
:1033C00003DA4042A06101200543E80701D0102044
:1033D0008543002E23D030464138192803D80120D8
:1033E000C00205432036204625603146029A154624
:1033F000FCF784FE00280BD0012806D0ED1DE8085C
:10340000C000083002908AE709E02D1D029586E78A
:1034100062683046A1689047206A401C7EE7206AB7
:10342000FEBDF8B5042A2CD3830712D00B78491CB3
:103430000370401C521E83070BD00B78491C03708D
:10344000401C521E830704D00B78491C0370401C9B
:10345000521E8B079B0F05D0C91ADF002023DE1BED
:1034600008C90AE0FCF76AFEF8BD1D4608C9FD4020
:103470001C46B4402C4310C0121F042AF5D2F30896
:10348000C91A521EF0D40B78491C0370401C521EFE
:10349000EAD40B78491C0370401C012AE4D4097853
:1034A0000170F8BD01E004C0091F0429FBD28B079D
:1034B00001D50280801CC90700D002707047002926
:1034C0000BD0C30702D00270401C491E022904D34E
:1034D000830702D50280801C891EE3E70022EEE705
:1034E0000022DFE7002203098B422CD3030A8B4220
:1034F00011D300239C464EE003460B433CD40022EC
:1035000043088B4231D303098B421CD3030A8B42FD
:1035100001D394463FE0C3098B4201D3CB01C01ACB
:10352000524183098B4201D38B01C01A5241430996
:103530008B4201D34B01C01A524103098B4201D384
:103540000B01C01A5241C3088B4201D3CB00C01AF1
:10355000524183088B4201D38B00C01A5241430869
:103560008B4201D34B00C01A5241411A00D201468E
:103570005241104670475DE0CA0F00D04942031027
:1035800000D34042534000229C4603098B422DD376
:10359000030A8B4212D3FC22890112BA030A8B421E
:1035A0000CD3890192118B4208D3890192118B426D
:1035B00004D389013AD0921100E08909C3098B42F2
:1035C00001D3CB01C01A524183098B4201D38B0135
:1035D000C01A524143098B4201D34B01C01A5241D8
:1035E00003098B4201D30B01C01A5241C3088B421D
:1035F00001D3CB00C01A524183088B4201D38B0008
:10360000C01A5241D9D243088B4201D34B00C01A91
:103610005241411A00D20146634652415B101046A6
:1036200001D34042002B00D54942704763465B10EE
:1036300000D3404201B50020C046C04602BD7047DD
:10364000704770477047FFB504460D4681B024307F
:1036500000902168880604D51022E069914321601A
:1036600000E00120A84201DD471B00E0002704988C
:10367000A1697A191018081AA0612078C00602D42E
:103680002046C046C046002608E003986268A1684C
:10369000805D9047206A401C761C20620498864218
:1036A000F3DB2078C0060AD52046C046C04606E0B7
:1036B0006268A16830209047206A401C206238462A
:1036C0007F1E0028F4DC07E000986268A168405D76
:1036D0009047206A401C206228466D1E0028F3DCBB
:1036E0002046C046C0462078000602D5022005B01C
:1036F000F0BD0120FBE70000084B70B50D467B4490
:1037000000F027F804462846FEF7C4F8002802D047
:103710000020C04370BD204670BD0000B3E1FFFF34
:1037200001468008081A02091018020A1018020C33
:103730001018C008820012185200891A01E0401CBB
:103740000A390A29FBD2704701694A1C02610878CC
:10375000704700B58FB00291002105910549019392
:1037600079440391114604906846FFF7D3FD0FB0EA
:1037700000BD0000E5FFFFFF754600F025F8AE46EE
:10378000050069465346C008C000854618B020B5FC
:10379000FCF728FF60BC00274908B6460026C0C5D4
:1037A000C0C5C0C5C0C5C0C5C0C5C0C5C0C5403DF9
:1037B00049008D46704710B50446C046C0462046B5
:1037C000FCF7B6FC10BD0000004870473C06002026
:1037D00030380A2801D201207047002070470000CD
:1037E00022038803A1030D01B503B2017101420256
:1037F000C701CA038B0029014B026D0075019F00B0
:10380000210385039C030B01AC03AD016C0139025C
:10381000BF01B703880022013C026A006A019A00D6
:103820001F0000001F0000001D000000020000003B
:10383000020000006B046D046F04710474047604CC
:1038400078047A045B045D045F0461046404660424
:1038500068046A046C046E047004720473047504D2
:10386000770479045C045E04600462046304650404
:1038700067046904303132333435363738394142E0
:1038800043444546403058003031323334353637C2
:10389000383961626364656640307800BC38000086
:1038A00000000020A4000000C400000060390000F7
:1038B000A4000020FC110000E00000000000000057
:1038C00000000000000000000000000000000000F8
:1038D000041025405760574025100400F4010000F3
:1038E000F4010000F4010000F4010000F401000004
:1038F000F4010000F4010000F4010000F4010000F4
:10390000F401000000000000000000510000005120
:1039100000000000000000000000000000000000A7
:103920001000004214000042180000421C00004237
:103930002000004224000042280000422C000042E7
:103940003000004234000042380000423C00004297
:103950004000004244000042480000424C00004247
:0400000500000000F7
:00000001FF
