:020000040000FA
:10000000B0130020291000000000000000000000D4
:1000100000000000000000000000000000000000E0
:1000200000000000000000000000000000000000D0
:1000300000000000000000000000000000000000C0
:100040003310000083100000FB1000004710000078
:1000500000000000000000005B1000006F100000B6
:10006000D3100000E7100000000000000F11000096
:1000700097100000AB100000BF100000000000004F
:1000800000F002F800F04BF80CA030C80838241833
:100090002D18A246671EAB4654465D46AC4201D1C0
:1000A00000F03DF87E460F3E0FCCB64601263342A7
:1000B00000D0FB1AA246AB4633431847DC5C000075
:1000C000FC5C0000103A02D378C878C1FAD8520715
:1000D00001D330C830C101D504680C6070470000FE
:1000E0000023002400250026103A01D378C1FBD854
:1000F000520700D330C100D50B60704710B564299A
:1001000002D104F063FE10BD782902D104F094FE00
:1001100010BD002010BD1FB51FBD10B510BD05F0EE
:1001200069FB1146FFF7F7FF00F024F805F081FBAB
:1001300003B4FFF7F2FF03BC01F031F870B50546D8
:100140000C46164602E00FCC0FC5103E102EFAD218
:10015000082E02D303CC03C5083E042E07D301CCDE
:1001600001C5361F03E021782970641C6D1C761EC2
:10017000F9D270BD04F01AFC002000020030000229
:1001800059300002503004F0DDFD00F010F800F0AE
:100190005FFC04F0CAFA04F0BFFA03F059F901F069
:1001A00035F800F087FE01E000F09FFEFCE710B597
:1001B0007021202000020030000200300002B83020
:1001C00004F0C5FE002120200002003000020030B3
:1001D0000002F830017002214170722181703221D9
:1001E000C17080210171C6214171252181710121D8
:1001F000C1715321017343210C304170552181702D
:100200004D21C1703321017110BDF0B597B00027A9
:100210000024AA201690159014902020000200308F
:10022000000200300002F83080798006800E4030F5
:10023000089040212020000200300002003000021F
:10024000B83004F084FE2C2109A804F080FE552269
:1002500039467F1C202000020030000200300002DE
:10026000B83042546B2239467F1C42547D223946B5
:100270007F1C4254912239467F1C425471223946D8
:100280007F1C425440222146641C09A84254A422E7
:100290002146641C425405250FE02021090200314B
:1002A000090200310902F831485D03F008F92146DE
:1002B000621CD4B209AA50546D1E002DEDDA202024
:1002C00000020030000200300002F830C07900283F
:1002D0001FD060222046611CCCB209A90A5410220A
:1002E0002046611CCCB209A90A5400250FE0202148
:1002F000090200310902013109020431485D03F0AD
:10030000DEF82146621CD4B209AA50546D1C052D9A
:10031000EDDB202000020030000200300002F83047
:10032000007A00283CD0C0222146601CC4B209A833
:10033000425403222046611CCCB209A90A54202051
:1003400000020030000200300002F830407C8002E1
:1003500020210902003109020131090209314978DD
:100360004901084320210902003109020131090233
:1003700009318978084380B207900799081203F081
:100380009EF82146621CD4B209AA50540799C8B2FB
:1003900003F095F82146621CD4B209AA505400BF5C
:1003A000202000020030000200300002F830407AC5
:1003B00000287ED090222046611CCCB209A90A54A4
:1003C00043222046611CCCB209A90A54202109020B
:1003D0000031090200310902B831496D080E03F0FD
:1003E0006EF82146621CD4B209AA50542021090299
:1003F0000031090200310902B831496D0902080EC5
:1004000003F05DF82146621CD4B209AA50542021A1
:1004100009020031090200310902B831496D0904AD
:10042000080E03F04CF82146621CD4B209AA5054BD
:10043000202109020031090200310902B831496D59
:10044000C8B203F03CF82146621CD4B209AA505449
:10045000202109020031090200310902B831896DF9
:10046000080E03F02CF82146621CD4B209AA50549D
:10047000202109020031090200310902B831896DD9
:100480000902080E03F01BF82146621CD4B209AA27
:100490005054202109020031090200310902B8310B
:1004A000896D0904080E03F00AF82146621CD4B2D3
:1004B00000E011E009AA505420210902003109028C
:1004C00000310902B831896DC8B202F0F8FF214647
:1004D000621CD4B209AA505420200002003000024D
:1004E00000300002F830807A002853D0202000022B
:1004F0000030000200300002B830416E006E66220B
:1005000012026632120266321202663240231B0267
:1005100071331B0212331B0266330391029004F005
:1005200045FF079106900020402109025931090436
:10053000079B069A04F0A0FF00223F231B02F03322
:100540001B040191009004F031FF0391029004F02C
:100550005DFF0590C0222046611CCCB209A90A5457
:1005600083222046611CCCB209A90A5405990904CA
:10057000080E02F0A4FF2146621CD4B209AA50540E
:100580000599C8B202F09BFF2146621CD4B209AAA9
:10059000505400BF20200002003000020030000252
:1005A000F830C07A00281FD0A0222046611CCCB2AF
:1005B00009A90A54C3222046611CCCB209A90A54D5
:1005C00000250FE020210902003109020131090252
:1005D0002031485D02F073FF2146621CD4B209AAA3
:1005E00050546D1C042DEDDB002431E007252BE079
:1005F00009A8005D0121A940084028411499C907B4
:10060000C90F06464E40149840101599C907090EA7
:1006100008431490159840101699C9010843B10178
:10062000484071014840C0B2159016984010F10141
:100630000843B101484031014840F1004840710091
:100640004840C0B216906D1E002DD1DA601CC4B2B5
:10065000272CCBDB149802F032FF1490159802F08F
:100660002EFF1590169802F02AFF16902146621C64
:10067000D4B209AA149850542146621CD4B209AAD3
:10068000159850542146621CD4B209AA16985054A9
:10069000002423E007251DE009A8005D0121A940F1
:1006A000884309A9095D0122AA401140089AD2078E
:1006B000D20FAA405140084309A908550898401094
:1006C0000899C907490E08430899C907490F4840C6
:1006D00008906D1E002DDFDA601CC4B22A2CD9DB15
:1006E000202109020031090200310902B831C8197C
:1006F0002A2209A904F0CCFB17B0F0BD10B50024E4
:100700004021202000020030000200300002B830FA
:1007100004F01DFC1D222146641C20200002003034
:10072000000200300002B830425455222146641CB9
:100730004254AD222146641C4254F6222146641CD8
:10074000425445222146641C4254C7222146641C5F
:100750004254C5222146641C42540E222046611C8C
:10076000CCB2202109020031090200310902B8315E
:100770000A5426222046611CCCB2202109020031F5
:10078000090200310902B8310A5413222046611CC3
:10079000CCB2202109020031090200310902B8312E
:1007A0000A54C2222046611CCCB220210902003129
:1007B000090200310902B8310A54AC222046611CFA
:1007C000CCB2202109020031090200310902B831FE
:1007D0000A5498222046611CCCB220210902003123
:1007E000090200310902B8310A5437222046611C3F
:1007F000CCB2202109020031090200310902B831CE
:100800000A54B8222046611CCCB2202109020031D2
:10081000090200310902B8310A5430222046611C15
:10082000CCB2202109020031090200310902B8319D
:100830000A54A1222046611CCCB2202109020031B9
:10084000090200310902B8310A54C9222046611C4C
:10085000CCB2202109020031090200310902B8316D
:100860000A54E4222046611CCCB220210902003146
:10087000090200310902B8310A5493222046611C52
:10088000CCB2202109020031090200310902B8313D
:100890000A5475222046611CCCB220210902003185
:1008A000090200310902B8310A54B7222046611CFE
:1008B000CCB2202109020031090200310902B8310D
:1008C0000A5441222046611CCCB220210902003189
:1008D000090200310902B8310A546C222046611C19
:1008E000CCB2202109020031090200310902B831DD
:1008F0000A54D1222046611CCCB2202109020031C9
:10090000090200310902B8310A542D222046611C27
:10091000CCB2202109020031090200310902B831AC
:100920000A54B8222046611CCCB2202109020031B1
:10093000090200310902B8310A5410BD10B504464D
:100940000622214620200002003000020030000272
:10095000F83004F09DFA10BD20210902003109028F
:1009600000310902F83188717047202109020031F5
:10097000090200310902F831C871704710B5044608
:100980000522214620200002003000020130000232
:10099000043004F07DFA10BD202109020031090263
:1009A00000310902F8310872704710B5044603227D
:1009B00021462020000200300002013000020930F0
:1009C00004F066FA10BD202109020031090200314D
:1009D0000902F831487270472021090200310902EA
:1009E00000310902B8314865704720210902003101
:1009F000090200310902B8318865704720210902D7
:100A00000031090200310902F83188727047202252
:100A100012020032120200321202B832516610661F
:100A20007047202109020031090200310902F83122
:100A3000C872704710B504460422214620200002E7
:100A40000030000201300002203004F021FA10BD15
:100A500010B5F920800002F066FD03200002E530A9
:100A600002F045FD03200002E63002F040FD0320C5
:100A70000002E73002F03BFD7D20C00002F037FDB0
:100A800003200002E93002F032FD03200002EA30C8
:100A900002F02DFD03200002EB3002F028FD0320C0
:100AA0000002F53002F03FFD04200002113002F098
:100AB0003AFD04200002123002F035FDF1208000E2
:100AC00002F015FD04200002393002F010FD002074
:100AD000522109022C31090408607F2003F0F8FA42
:100AE0007F2003F0DAFA00213F2003F0B8FA10BDAE
:100AF00010B503F016FAFF20A93002F0F8FCFF2031
:100B0000AA3002F010FDFF20A73002F00CFD3F21BB
:100B1000084603F0F1F80721084603F066F84C2078
:100B200003F035F87B2002F0E2FC5D20C00002F00B
:100B3000FAFC02200002E93002F0F5FC022000027B
:100B4000EA3002F0F0FC0120522109024031090490
:100B5000086010BD10B500F01FF800F041FD002046
:100B600000E0401C3228FCD300BF002010210843C5
:100B70004008400004210843202108435221090273
:100B80002C310904086000BF002000E0401C7D21DA
:100B9000C9008842FAD310BD70B500200125284352
:100BA00004260546B543284620260546B543284673
:100BB00052252D022C352D042860002135E02025FA
:100BC0002D0200352D0200352D02B8356C5C072250
:100BD00028E025461541EB07DB0F002B08D1022644
:100BE0000546B543284652252D022C352D04286094
:100BF000012B06D10225284352252D022C352D0428
:100C000028600825284352252D022C352D04286004
:100C100008260546B543284652252D022C352D04BD
:100C20002860521E002AD4DA491C4029C7DB70BD57
:100C300010B520231B0200331B0200331B021233AA
:100C40001B78002B02D0012B37D137E020231B0269
:100C500000331B0200331B0204331B8883422CD059
:100C600021235B065B682024240200342402003424
:100C700024020C34236001232024240200342402A3
:100C8000003424021234237020231B0200331B0281
:100C900000331B021033188020231B0200331B0279
:100CA00000331B0200331B685B1C20242402003429
:100CB000240200342402003423607CE020231B0241
:100CC00000331B0200331B0210331B88984211D1E2
:100CD00020231B0200331B0200331B0200331B685E
:100CE0005B1C20242402003424020034240200343B
:100CF000236010E020231B0200331B0200331B0281
:100D000000331B685B1E20242402003424020034BC
:100D100024020034236020231B0200331B02003313
:100D20001B0200331B68012B2ADB20231B0200332C
:100D30001B0200331B020C331B68202424020034E6
:100D40002402003424020434636020231B02003395
:100D50001B0200331B0210331B8823800023202436
:100D6000240200342402003424021234237020248C
:100D7000240200342402003424020034236019E0E9
:100D800020231B0200331B0200331B0200331B68AD
:100D9000002B0FD12024240200342402003424022A
:100DA000003423602024240200342402003424026E
:100DB0001234237000BF00BF20231B0200331B022C
:100DC00000331B0204331B880B8020231B020033DB
:100DD0001B0200331B0204335B68136010BDF8B5BF
:100DE0000346012004220146914308462022014681
:100DF00091430846522109022C3109040860002B56
:100E000007D02021090200310902013109022831ED
:100E100006E02021090200310902013109026C318A
:100E20000091002125E0009A545C07221EE026462E
:100E30001641F507ED0F02270646BE436F003E43FD
:100E40003046522636022C363604306008260643D9
:100E500052273F022C373F043E6008260746B7431F
:100E6000522636022C3636043760521E002ADEDA4D
:100E7000491C4029D7DBF8BD10B5342052210902A6
:100E80002C310904044608606408640008460460C4
:100E9000642000F099F80124042120468843044688
:100EA0002021204688430446522000022C300004B2
:100EB000046010BD10B500231A461946184602F00A
:100EC000A3FB062303221146104602F048FB012033
:100ED000C00302F01AFC0F200002FF3002F0EFFB0B
:100EE00003F023FC03F018FC10BD10B500F075F8FA
:100EF00000F086F808220221142003F05AFC00F0CA
:100F00006FFB0120FFF76BFFFFF7B6FF0020FFF735
:100F100066FFFFF7B1FF7D20C00000F055F810BD5F
:100F20007CB5044600F059F800F06AF849E0214623
:100F3000002000020030000259300002683003F047
:100F400001FF00F04DFB05220221142003F031FCCB
:100F50000120FFF744FFFFF78FFF0F22012114202C
:100F600003F027FC00F0E9FB00F0D9FB0020019022
:100F700000900BE05320000600680121C9030840DF
:100F8000850B6A4601A92846FFF752FE684680880D
:100F90000028EFD005220221142003F00AFC00F003
:100FA0001FFB0120FFF71BFFFFF766FF00BF0020BC
:100FB000FFF715FFFFF760FF7D20C00000F004F889
:100FC000641E002CB3DC7CBD01B500E000BF0098BE
:100FD000411E00910028F9D108BD10B51A22002148
:100FE000090200310902583109024C312020000267
:100FF0000030000201300002283003F049FF10BD2C
:1010000010B52C22002109020031090258310902D1
:1010100066312020000200300002013000026C30F6
:1010200003F036FF10BD00004149424808604248C5
:10103000004701B5012080F3108801F093FF0020E4
:1010400080F3108801BD01B5012080F3108801F004
:10105000B2FC002080F3108801BD01B5012080F3AF
:10106000108801F064F9002080F3108801BD01B5FB
:10107000012080F3108802F08CF8002080F31088A3
:1010800001BD01B5012080F3108801F046FF00206A
:1010900080F3108801BD01B5012080F3108801F0B4
:1010A00047FF002080F3108801BD01B5012080F3C7
:1010B000108801F041FF002080F3108801BD01B5C8
:1010C000012080F3108801F042FF002080F3108897
:1010D00001BD01B5012080F3108801F08DFA0020D8
:1010E00080F3108801BD01B5012080F3108801F064
:1010F000D7F9002080F3108801BD01B5012080F3ED
:10110000108800F099F8002080F3108801BD01B527
:10111000012080F3108800F090F8002080F3108800
:1011200001BD000005480649064A074B704700000C
:1011300000E100E00000000081000000B007002096
:10114000B0130020B00B0020B00B0020014600209F
:101150007047512109060870704710B551242406C4
:1011600023781846FFF7F5FF184610BD10B5034663
:101170000C461846FFF7EDFF10BD10B50446FFF70B
:10118000ECFF10BD10B50446202109020031090210
:101190000031090214312046FFF7E8FF10BD00209E
:1011A00000020030000259300002743003F0CAFD22
:1011B00000BFFEE710B52021202000020030000211
:1011C00001300002B03003F0C2FE03200002CF3035
:1011D0000002D23020210902003109020131090246
:1011E000B03188619620C86110BD20200002003017
:1011F000000201300002B030407870470320C00286
:10120000E0210904E13109020860704710B500F0DF
:1012100094FAFFF7F3FF00BFFFF7E7FF0028FBD0CA
:1012200000F00CFA002000020030000259300002E9
:10123000843003F087FD10BD7047F0B58DB00020FD
:101240000C9001F0F4FF054601F0FAFF079002F060
:1012500000F8069002F006F8059002F00CF80490F1
:1012600002F012F8039002F018F8029002F01EF853
:1012700001907F20292149060860202000020030CB
:10128000000201300002B0300078401C2021090229
:101290000031090201310902B031087029204006ED
:1012A00006685220000204300004076838048019E0
:1012B0000A905220000210300004066852200002FA
:1012C0001430000407683804801909905220000285
:1012D000183000040668522000021C300004076821
:1012E0003804841952200002283000040668522075
:1012F00000022C3000040768380480190B9052203B
:10130000000230300004066852200002343000042D
:1013100007683804801908900020292149060860D0
:101320003F200002FF300860202000020030000251
:1013300001300002B030007802287DDD1E21090254
:1013400078310902C8310998884210D2002D0DD198
:101350000798401E07900A2503202021090200312A
:10136000090201310902B031087000E06D1E1E2132
:1013700009029031090238310998884210D91F2D8D
:101380000DD10798401C0790142503202021090245
:101390000031090201310902B031087000E06D1C12
:1013A0002946079803F05FF9079801F091FF284656
:1013B00001F085FF20200002003000020130000211
:1013C000B03080690B99884210D220200002003092
:1013D000000201300002B030C069401E2021090225
:1013E0000031090201310902B031C8612020000238
:1013F0000030000201300002B030806901460B98D5
:10140000814210D920200002003000020130000289
:10141000B030C069401C20210902003109020131AD
:101420000902B031C86120210902003109020131ED
:101430000902B031C86900E077E003F0F9F9032050
:1014400000020F3000029830844203D90698401CF5
:10145000069014E0032000020D3000029030844218
:1014600003D90598401C059009E0032000020D30C7
:1014700000024F30844202D90498401C049003209B
:1014800000020A300002E830844203D20698401E6F
:10149000069014E0032000020C300002F030844279
:1014A00003D20598401E059009E0032000020D308C
:1014B00000023130844202D20498401E0490049805
:1014C00000901F210846059B069A03F013FA069820
:1014D00001F007FF059801F00DFF049801F013FFDC
:1014E000182109026F31090278310898884202D91F
:1014F0000198401C019018210902643109028831C9
:101500000898884202D20198401E019000221621BC
:10151000172003F06AF8172001F007FF162001F0EA
:101520000DFF03F002F903F0F7F8069823462A4668
:1015300000900020000200300002593000029C3070
:10154000099903F0FFFB2020000200300002013067
:101550000002B030C069009000200002003000029C
:1015600059300002B0300B9B049A059903F0EAFB56
:10157000002000020030000259300002C830019AF9
:10158000089903F0DFFB2020000200300002013048
:101590000002B0300078192820D10320C002E021D9
:1015A0000904E1310902803108600020202109028C
:1015B0000031090201310902B03108700120487080
:1015C0000A984860084684600898C8600B980861CB
:1015D0000998486100202921490608600DB0F0BD36
:1015E000682052210902283109040860062052218E
:1015F0000902403109040860704770B505460C4681
:10160000224629462020000200300002033000025A
:101610008C3003F03DFC202000020030000203303B
:1016200000028C300121890788600846C4600120CF
:10163000086070BD102081060860704700B5FFF794
:10164000F9FF01204003522109021031090408600A
:1016500000205221090228310904086000BD02203F
:1016600041070860704700B52020000200300002EA
:101670000330000278300078012802D1FFF7EFFF35
:1016800014E0202000020030000203300002783015
:10169000007802280AD10120202109020031090224
:1016A000063109021831C871FFF7C8FF00BD70B5D7
:1016B00004460D46012020210902003109020331B0
:1016C0000902783108700020000200300002163054
:1016D0000002673001F06EFC29462046FFF78DFFBF
:1016E000FFF77EFF01F0B4FC7D210901461830466A
:1016F00001F0A7FC0021202000020030000204308D
:101700000002F830017700BF202000020030000204
:1017100004300002F830007F0028F5D070BD0120B1
:101720004003522109021031090408600520C0025B
:101730000860042001070860704758205221090200
:1017400028310904086001205221090240310904AE
:1017500008602020000200300002043000020C303B
:10176000412109064861102081060860704770B564
:1017700005460C46022020210902003109020331EE
:10178000090278310870FF2D01DC284600E0FF20B7
:10179000202109020031090205310902F8310877D8
:1017A000002C08D000200002003000021630000299
:1017B000673001F0FFFB0021202000020030000212
:1017C0000630000218300172FFF7B7FFFFF7A7FFDE
:1017D000002C07D001F03CFC7D2109014618304661
:1017E00001F02FFC002020210902003109020631FE
:1017F00009021831C87100BF202000020030000229
:10180000063000021830C0790028F5D070BD10B540
:1018100004462146FF20FFF7AAFF10BD704700B520
:101820000246FFF70BFF01212020000200300002DA
:1018300004300002F830017700BD0121202212029D
:101840000032120206321202183211727047522010
:101850000002543000040068704710B502F0A3FE87
:1018600010BD202000020030000204300002783059
:10187000407D7047FFB581B00C4615461E460A9F55
:1018800002F0ABFE553840B2307002F0A0FE387066
:10189000202000020030000203300002F830007DFA
:1018A00020702078A8420ADC227820210902003129
:1018B0000902043109020D31019803F0E9FA05B07B
:1018C000F0BD1CB5044600200190FF21202000023D
:1018D0000030000205300002153003F036FB2020F6
:1018E000000200300002063000021D300090253852
:1018F000027F0346243301A9E338FFF7BBFFFFF75C
:10190000B0FF002836D02020000200300002053051
:101910000002F830007FFF280BD0202000020030AA
:10192000000205300002F830007F694609798842DC
:1019300020D1FFF792FF2021090200310902053171
:101940000902F831C862FFF782FF20210902003145
:10195000090205310902F83108630846026A68463F
:10196000017920200002003000020530000215300D
:10197000904703E0FFF7E1FEFFF7D1FE00202021B2
:1019800009020031090206310902183108720120EA
:10199000C8711CBD0FB4F0B58BB01298049010A89C
:1019A000407903900020029010A80078012808D107
:1019B000002000020030000259300002D4300190B3
:1019C00007E0002000020030000259300002E03041
:1019D000019010A80079022815D110A8077C407C3E
:1019E000099010A8807C0890781CC0B2079000BFB6
:1019F0000998401CC0B2069000BF0898401CC0B2B5
:101A0000059000BF0FE010A8C77C807D079010A84C
:101A1000007D099010A8C07D069010A8407D089018
:101A200010A8007E059000BF6FE03C466AE0099D6B
:101A300063E0089E5CE008A804724572867210A8F4
:101A4000007901280BD133462A46214600200002A6
:101A50000030000259300002E83003F073F900BF93
:101A600032462946204602F0A4FE10A8007802283B
:101A700005D110A948790121FFF779FE1EE010A8D1
:101A8000007801281AD1009007E02021129A0098CE
:101A900011540098401CC0B2009010A841790098E1
:101AA0008142F2DC1298049000BF139B0A9A0399BA
:101AB0000498984703990498FFF7F9FD0298401C91
:101AC000029010A80221415E029881420ED10020AE
:101AD0000002003000025A3000020830029903F080
:101AE00031F90BB0F0BC08BC04B01847701CC6B28A
:101AF000059886429FDB681CC5B20698854298DB34
:101B0000601CC4B20798844291DB8EE770B506462C
:101B10000D4600200002003000025A30000244301E
:101B200003F010F9002412E020200002003000022F
:101B3000053000021530015D002000020030000277
:101B40005A300002603003F0FDF8601CC4B2A81ED9
:101B5000A042E9DC00200002003000025A300002FE
:101B6000643003F0EFF870BD202109020031090252
:101B700005310902F831086270472021090200315D
:101B800009020331090278310861704720210902F6
:101B900000310902033109027831C8607047202101
:101BA0000902003109020331090278318860704767
:101BB000202109020031090203310902783148600D
:101BC000704710B55721C9002020000200300002E4
:101BD00003300002783003F0BAF902210902C33160
:101BE00020200002003000020430000278308165BD
:101BF000C91F81610F21803001834020E021090449
:101C0000E131090208601F20890548610820086247
:101C10000020000200300002183000021D30FFF7E3
:101C2000C7FF0020000200300002183000021F3001
:101C3000FFF7B5FF0020000200300002183000025C
:101C40003B30FFF7A3FF00200002003000021830F5
:101C50000002C330FFF791FF0020000200300002B5
:101C60001B3000020D30FFF77FFF10BD10B504469A
:101C700021460B398A002021090200310902043172
:101C800009029031885802F0D3FD10BD10B504460A
:101C900021460B398A002021090200310902043152
:101CA0000902D031885802F0C3FD10BD70B5054659
:101CB0000C460B21202000020030000204300002FC
:101CC00078300175012C02D0022C16D10AE02021B7
:101CD000090200310902043109027831087DFFF759
:101CE000D5FF0BE02021090200310902043109026D
:101CF0007831087DFFF7BAFF00E000BF00BF70BD7C
:101D00000120800700681021884389060860704719
:101D1000F7B584B000BF01F0C0FA019001F0C6FA37
:101D20000090202000020030000203300002F83052
:101D3000007D0290202000020030000204300002EA
:101D4000F830408B401C81B220200002003000029D
:101D500004300002F83041830025029AD1003D236F
:101D60001B020933069A5A43104603F0FCF803900D
:101D7000092413E060002021090200310902033127
:101D800009026031095A601C400020221202003210
:101D900012020332120260321152641E002CE9DA80
:101DA000039800B22021090200310902033109021F
:101DB00060310880002413E0600020210902003116
:101DC0000902033109026031085E20210902003155
:101DD0000902003109022C31095D48434519641C90
:101DE0000A2CE9DD2846E917C90D09184F122020F1
:101DF00000020030000204300002F830418B008BFA
:101E000081421CD17D20C000874207DD0098421C22
:101E1000014600920022019802F0E7FBFF20000239
:101E2000FF300002FC3000021830874207DA0098C9
:101E3000421E014600920022019802F0D6FB019852
:101E400001F073FA009801F079FA00250598192835
:101E50007ED2092413E0A0002021090200310902EA
:101E60000031090238310958601C8000202212021A
:101E7000003212020032120238321150641E002C5D
:101E8000E9DA202109020031090200310902383162
:101E900004980860002413E0A0002021090200310A
:101EA00009020031090238310858202109020031A5
:101EB0000902003109022C31095D48434519641CAF
:101EC0000A2CE9DD2846E917C90D09184E12202011
:101ED00000020030000204300002F830418B008B19
:101EE000814235D14120C000864246D920200002DF
:101EF00000300002043000027830007D0B38810091
:101F000020200002003000020430000290304058CF
:101F1000401C2021090200310902043109027831F4
:101F2000097D0B398A0020210902003109020431A0
:101F300009029031885008461838007D0B3881001E
:101F4000202000020030000204300002D03000E007
:101F500065E04058401C202109020031090204318B
:101F600009027831097D0B398A00202109020031EC
:101F7000090204310902D0318850FF20E130864245
:101F800044D22020000200300002043000027830E9
:101F9000007D0B3881002020000200300002043058
:101FA000000290304058401E2021090200310902F1
:101FB000043109027831097D0B398A002021090298
:101FC000003109020431090290318850084618385E
:101FD000007D0B3881002020000200300002043018
:101FE0000002D0304058401E202109020031090271
:101FF000043109027831097D0B398A002021090258
:102000000031090204310902D0318850002120201A
:1020100000020030000204300002F830418307B0B3
:10202000F0BD4020E0210904E13109020860704759
:102030004020E0210904E131090280310860704745
:102040005220000264300004008800B27047F1B5ED
:10205000A2B0402112A802F07AFF442101A802F0A8
:1020600076FF20210902003109020431090278318A
:1020700022988861002488E0A20020210902003112
:102080000902043109029031885802F0D1FB002086
:102090002921490608603F200002FF30086001271F
:1020A00000E07F1C7D20C0018742FAD37F202921D8
:1020B00049060860522000022830000405685220BA
:1020C00000022C300004066830044019A10012AA56
:1020D0005050611C490003221202C1328918129A21
:1020E0005143084603210902C13102F032FF611C4D
:1020F000890001AA5050002C30DDA00012A9095817
:10210000A00010581438814213D2A10020200002F0
:10211000003000020430000290304058401CA20001
:10212000202109020031090204310902903188504E
:1021300014E0A10020200002003000020430000260
:10214000903040582830611C8A002021090200315B
:1021500009020431090290318850641C002C14D10A
:10216000A100202000020030000204300002903064
:1021700040582830611C8A002021090200310902E0
:102180000431090290318850641C102C00DA73E786
:10219000002400E0641C102CFCDB129823B0F0BD7E
:1021A000F0B5B3B005460E460024402121A802F048
:1021B000CEFE442110A802F0CAFE2022002109020E
:1021C0000031090258310902943108A8FDF7B6FF21
:1021D0002022002109020031090258310902B431DC
:1021E0006846FDF7ABFF20200002003000020430FB
:1021F00000027830856570E0A200202109020031DC
:10220000090204310902D031885802F011FB002084
:102210002921490608603F200002FF3008600120A4
:10222000319002E03198401C31907D21C9013198F4
:102230008842F7DB7F2029214906086052200002EE
:10224000283000040768522000022C300004006887
:10225000329032980004C019A10021AA50506200A7
:102260006B46995A620008AB9A5A7243104602F0C4
:1022700070FEA10010AA5050A00021A90958A0008A
:102280001058401F814213D2A100202000020030CC
:10229000000204300002D0304058401CA20020212F
:1022A00009020031090204310902D031885014E0DA
:1022B000A100202000020030000204300002D030D3
:1022C00040582830611C8A0020210902003109028F
:1022D00004310902D0318850641C102C8CDB33B0DF
:1022E000F0BD70B504462046FFF7B1FE0546032059
:1022F0000002CB3001F0FBF8FF202B3001F013F986
:10230000FF20343001F00FF9FF20F93001F0EFF831
:10231000FF20FB3001F007F9FF20FD3001F003F949
:1023200029462046FFF73CFFFFF788F970BD70B5DE
:10233000012080070469C56900F0B5FB00F04FFC7F
:102340000121202000020030000204300002783019
:102350004175002D0DD008202840002808D000210C
:102360002020000200300002043000027830417565
:1023700000BF012080074562E007C00F002806D09B
:1023800001208007806901210843890788610220B4
:10239000204000281CD02020000200300002033022
:1023A00000027830406800280BD021225206506885
:1023B00020221202003212020332120278325168D5
:1023C0008847012080078069022108434907886106
:1023D0000420204000281CD02020000200300002F1
:1023E000033000027830806800280BD0212252068A
:1023F0005068202212020032120203321202783296
:1024000091688847012080078069042108430907F3
:1024100088610820204000281CD0202000020030C5
:102420000002033000027830C06800280BD021225F
:1024300052065068202212020032120203321202A7
:102440007832D168884701208007806908210843D5
:10245000C90688611020204000281CD020200002DE
:1024600000300002033000027830006900280BD0F1
:102470002122520650682022120200321202033238
:102480001202783211698847012080078069102183
:1024900008438906886100F013FB00F0ADFB70BDB6
:1024A00070B552200002443000040568522000023A
:1024B0004830000406683004401920210902003128
:1024C0000902003109021C31096889002022120228
:1024D0000032120201321202D0325050202000028B
:1024E00000300002003000021C300068401C202137
:1024F000090200310902003109021C310860202064
:102500000002003000020030000228300068202164
:102510000843202109020031090200310902283153
:10252000086008460068522109020C31090408605D
:102530002020000200300002003000022830006835
:1025400020218843202109020031090200310902BB
:102550002831086008460068522109020C3109043C
:1025600008602020000200300002003000021C3011
:1025700000680A283FD1012412E0A00020221202A4
:102580000032120201321202D03211580020000231
:10259000003000025A300002683002F0D3FB641CA5
:1025A0000A2CEAD3FF200130E0210904E1310902BD
:1025B000803108604000E0210904E131090208602F
:1025C00000202021090200310902003109021C31DA
:1025D0000860002400E0641C2720000210308442C0
:1025E000F9D305200002FA3000040430E021090488
:1025F000ED310902C86070BD10B520221202003210
:102600001202003212022832126860231A43202379
:102610001B0200331B0200331B0228331A601A46C8
:10262000126852231B020C331B041A602022120270
:1026300000321202003212022832126860239A43DA
:1026400020231B0200331B0200331B0228331A60B5
:102650001A46126852231B020C331B041A60012213
:102660005202E0231B04E1331B021A605210E023E4
:102670001B04E1331B0280331A605200E0231B0469
:10268000E2331B0280331A605222120244321204D7
:102690001068522212024832120411680A041218F9
:1026A00020231B0200331B0200331B021C331B6858
:1026B0009B00202424020034240201342402D0345C
:1026C000E2502022120200321202003212021C32A8
:1026D0001268521C20231B0200331B0200331B0212
:1026E0001C331A6010BD70B505460C46E007C00FDC
:1026F000002803D0284600F016FF02E0284600F02C
:10270000F6FE70BD10B504462006C10F022000027F
:10271000FE30FFF7E8FF6006C10F02200002FF3025
:10272000FFF7E1FFA006C10F03200002FFF7DBFF68
:10273000E006C10F032000020130FFF7D4FF20079D
:10274000C10F032000020230FFF7CDFF6007C10F69
:10275000032000020330FFF7C6FFA007C10F1920B6
:102760004001FFF7C0FFE107C90F03200002053059
:10277000FFF7B9FF10BD10B504462006C10F332086
:102780000001FFF7B0FF6006C10F032000023130E7
:10279000FFF7A9FFA006C10F032000023230FFF7A8
:1027A000A2FFE006C10F032000023330FFF79BFFBA
:1027B0002007C10FCD208000FFF795FF6007C10FF4
:1027C000032000023530FFF78EFFA007C10F032062
:1027D00000023630FFF787FFE107C90F0320000230
:1027E0003730FFF780FF10BD10B504466006C10FFB
:1027F000032000020A30FFF776FFA006C10F312048
:102800000001FFF770FFE006C10F032000020F3048
:10281000FFF769FF2007C10F032000020E30FFF70A
:1028200062FF6007C10F032000020D30FFF75BFF5E
:10283000A007C10FC3208000FFF755FFE107C90FB4
:10284000032000020B30FFF74EFF10BD10B5044609
:102850002006C10F02200002FD30FFF744FF600692
:10286000C10FBF208000FFF73EFFA006C10F02206E
:102870000002FB30FFF737FFE006C10F0220000225
:10288000FA30FFF730FF2007C10F02200002F930B5
:10289000FFF729FF6007C10F5F20C000FFF723FF8C
:1028A000A007C10F02200002F730FFF71CFFE1076D
:1028B000C90F02200002F630FFF715FF10BD10B55A
:1028C00004462178F220FFF70EFF6178F320FFF72E
:1028D0000AFFA178F420FFF706FFE078FFF712FF68
:1028E0002079FFF748FF6079FFF77EFFA079FFF7B7
:1028F000ADFFE179032000021E30FFF7F4FE217ADC
:10290000032000022130FFF7EEFE607A8007C10F3E
:10291000032000029330FFF7E6FE607AC107C90F7B
:10292000042000023F30FFF7DEFEA17A1120800173
:10293000FFF7D9FE10BD0020202109020031090255
:1029400000310902643188700120052109070860FF
:10295000704710B5E0200004E13000020068082153
:102960000843E0210904E1310902086008460168D2
:1029700000200002003000025A300002703002F0E5
:10298000E1F910BD10B5E0200004E130000200685C
:1029900008218843E0210904E13109020860084662
:1029A000016800200002003000025A30000290301E
:1029B00002F0C8F910BD10B500200002003000027E
:1029C0005A300002B03002F0BDF95020000204304D
:1029D0000004008880B22021090200310902003180
:1029E000090264310870000A48700120887010BD27
:1029F00053200002043000040068000C000453213E
:102A000009020431090408607047532000020430B1
:102A1000000400680121084353210902043109041C
:102A2000086070475320000204300004006840082A
:102A30004000532109020431090408607047532003
:102A400000020430000400680121484053210902BB
:102A50000431090408607047532000020430000468
:102A60000068022108435321090204310904086067
:102A7000704753200002043000040068022188439C
:102A800053210902043109040860704753200002F1
:102A90000430000400680221484053210902043137
:102AA00009040860704753200002043000040068E5
:102AB00004210843532109020431090408607047C6
:102AC000532000020430000400680421884353218D
:102AD00009020431090408607047532000020430E1
:102AE000000400680421484053210902043109040C
:102AF0000860704753200002043000040068082179
:102B00000843532109020431090408607047532027
:102B100000020430000400680821884353210902A0
:102B20000431090408607047532000020430000497
:102B30000068082148405321090204310904086053
:102B4000704753200002043000040068102108433D
:102B50005321090204310904086070475320000220
:102B60000430000400681021884353210902043115
:102B70000904086070475320000204300004006814
:102B800010214840532109020431090408607047AC
:102B90005320000204300004006820210843532120
:102BA0000902043109040860704753200002043010
:102BB00000040068202188435321090204310904DC
:102BC0000860704753200002043000040068202190
:102BD000484053210902043109040860704753201A
:102BE0000002043000040068402108435321090218
:102BF00004310904086070475320000204300004C7
:102C00000068402188435321090204310904086007
:102C100070475320000204300004006840214840FF
:102C2000532109020431090408607047532000024F
:102C30000430000400688021084353210902043154
:102C40000904086070475320000204300004006843
:102C50008021884353210902043109040860704728
:102C600053200002043000040068802148405321B2
:102C7000090204310904086070475320000204303F
:102C800000040068FF210131084353210902043187
:102C900009040860704753200002043000040068F3
:102CA000FF210131884353210902043109040860DE
:102CB000704753200002043000040068FF210131F6
:102CC0004840532109020431090408607047532029
:102CD0000002043000040068012149020843532126
:102CE00009020431090408607047532000020430CF
:102CF000000400680121490288435321090204317C
:102D00000904086070475320000204300004006882
:102D10000121490248405321090204310904086095
:102D2000704753200002043000040068012189022A
:102D300008435321090204310904086070475320F5
:102D400000020430000400680121890288435321F5
:102D5000090204310904086070475320000204305E
:102D6000000400680121890248405321090204310E
:102D70000904086070475320000204300004006812
:102D80000121C902084353210902043109040860E2
:102D90007047532000020430000400680121C9027A
:102DA0008843532109020431090408607047532005
:102DB00000020430000400680121C9024840532188
:102DC00009020431090408607047532000020430EE
:102DD000000400680121090308435321090204315A
:102DE00009040860704753200002043000040068A2
:102DF00001210903884353210902043109040860B1
:102E000070475320000204300004006801210903C8
:102E100048405321090204310904086070475320D7
:102E200000020430000400680121490308435321D3
:102E3000090204310904086070475320000204307D
:102E40000004006801214903884353210902043129
:102E50000904086070475320000204300004006831
:102E60000121490348405321090204310904086043
:102E700070475320000204300004006801218903D8
:102E800008435321090204310904086070475320A4
:102E900000020430000400680121890388435321A3
:102EA000090204310904086070475320000204300D
:102EB00000040068012189034840532109020431BC
:102EC00009040860704753200002043000040068C1
:102ED0000121C90308435321090204310904086090
:102EE0007047532000020430000400680121C90328
:102EF00088435321090204310904086070475320B4
:102F000000020430000400680121C9034840532135
:102F10000902043109040860704710B5002000025E
:102F2000003000025A300002CC3001F00BFF10BD1F
:102F300010B5FEF782F910BD10B500200002003078
:102F400000025A300002F43001F0FCFE10BD10B552
:102F500000200002003000025B3000021C3001F053
:102F6000F1FE10BD10B500200002003000025B3001
:102F70000002443001F0E6FE10BD10B52C212020E7
:102F800000020030000206300002303001F0DFFFA6
:102F90000020C0432121490688600720086010BD39
:102FA0008A0020231B0200331B0206331B0230332E
:102FB0009850704710B5044600212046FFF7F0FFF7
:102FC00010BD8020E0210904E1310902086070474A
:102FD000012181404222120640325163704700B500
:102FE00003461846FFF7F4FF03209900202212023F
:102FF000003212020032120298325158086000BDAD
:1030000030B504460D462846FFF7E9FFFFF7D9FF24
:10301000212040064068201AFF210902FF31884222
:1030200004D301204221090640310863A800202171
:1030300009020031090200310902783108580460A0
:1030400030BD10B5044600212046FFF7D9FF10BD62
:1030500021204006406870478020E0210904E131CA
:1030600009028031086070470021820020231B0282
:1030700000331B0200331B0298339A5811607047CB
:1030800000B50020FFF7A4FF00BD2022120200328D
:10309000120200321202703250547047F0B50446EA
:1030A0000D46FF20F530604306462846FFF797FFA0
:1030B000FFF787FFA800202109020031090206312D
:1030C00009025C310C50FFF7C3FF871929463846C7
:1030D000FFF796FFF0BD30B505460C4600202021D5
:1030E0000902003109020031090268310855214600
:1030F0002846FFF7D3FF00BF202000020030000267
:10310000003000026830005D0028F5D030BD10B5F9
:103110000446012020210902003109020031090280
:103120006831085520200002003000020030000203
:103130007030005D00280BD0A10020221202003266
:103140001202063212025C3250582146FFF7A6FFE7
:10315000A0002021090200310902063109023031A4
:10316000085800280AD0A1002022120200321202C0
:103170000632120230325058804709E021460020C2
:103180000002003000025B300002643001F0DAFD22
:1031900010BD70B500240126FFF785FC4220000613
:1031A0004030008E85B200BF08E02846304000283D
:1031B00002D0E0B2FFF7ABFF7600641C082CF4DB12
:1031C0004220000640304563FFF77AFC70BD10B521
:1031D000CC212020000200300002063000027C30AA
:1031E00001F0B5FE1121202000020030000206305F
:1031F0000002FC30C16203210163152141630F21EC
:103200008163C163182109026A3109020164162130
:103210004164122181641422002109020031090253
:1032200058310902D4311830FCF788FF10BD202036
:1032300000020030000206300002FC30C06A704715
:10324000202000020030000206300002FC30006B3B
:103250007047202000020030000206300002FC30DF
:10326000406B704720200002003000020630000250
:10327000FC30806B704720200002003000020630D6
:103280000002FC30C06B70472020000200300002BA
:1032900006300002FC30006C704720200002003035
:1032A000000206300002FC30406C70472020000213
:1032B0000030000206300002FC30806C7047202194
:1032C00009020031090206310902FC31C862704767
:1032D000202109020031090206310902FC3108638C
:1032E0007047202109020031090206310902FC3130
:1032F00048637047202109020031090206310902A2
:10330000FC3188637047202109020031090206312F
:103310000902FC31C863704720210902003109020B
:1033200006310902FC31086470472021090200318E
:10333000090206310902FC31486470472021090264
:103340000031090206310902FC318864704710B56A
:103350000446982221462020000200300002063058
:1033600000027C30FCF7EAFE10BD55210902553100
:1033700009025531090255310140490042085523DF
:103380001B0255331B0255331B0255331A401143A0
:10339000084633210902333109023331090233313E
:1033A00001408900820833231B0233331B0233336D
:1033B0001B0233331A40114308460F2109020F3113
:1033C00009020F3109020F310140090102090F23DF
:1033D0001B020F331B020F331B020F331A40114322
:1033E00008460106FF221202024012021143020A9D
:1033F000FF231B021A401143020E11430846704777
:10340000F3B500256C1E1CE00098465D3046FFF7C2
:10341000ACFF0646002711E02046704000280ADA7B
:10342000600004210902C13109021D310902B731CE
:103430004840044600E0640076007F1C072FEBDD67
:103440006D1C01988542DFD3E043FFF78EFFFCBD82
:1034500010B500200002003000025B3000029830FE
:1034600001F070FC00200002003000025B3000021E
:10347000B03001F067FCFF200002C030816B0020FB
:10348000FFF7BEFF0446FF200002C030C06BA04221
:1034900009D100200002003000025B300002D03071
:1034A00001F050FC0AE000200002003000025B3016
:1034B0000002DC3001F046FC00BFFEE710BDF02149
:1034C000014009110207120E11430846CC210140A8
:1034D000891033220240920011430846AA2101407C
:1034E000491055220240520011430846704710B55A
:1034F00041098A0020231B0200331B0206331B02F2
:103500007C339A584B01C41A0123DB07E3409A43EA
:103510008B002024240200342402063424027C344C
:10352000E25000BF10BD10B541098A0020231B02E4
:1035300000331B0206331B027C339A584B01C41A1A
:103540000123DB07E3401A438B00202424020034CC
:103550002402063424027C34E25000BF10BDFFB5C3
:1035600005460E46174600240FE028462041C007B6
:10357000C00F002804D02046F530FFF7D4FF03E049
:103580002046F530FFF7B3FF641C032CEDDD00246B
:103590000FE030462041C007C00F002804D020466D
:1035A000F930FFF7C0FF03E02046F930FFF79FFF37
:1035B000641C032CEDDD00240FE038462041C007D9
:1035C000C00F002804D02046FD30FFF7ACFF03E019
:1035D0002046FD30FFF78BFF641C032CEDDD00243B
:1035E0000FE003982041C007C00F002804D0E01D61
:1035F000FA30FFF798FF03E0E01DFA30FFF777FF9E
:10360000641C032CEDDDFFBDFFB505460E461746D5
:1036100000240FE028462041C007C00F002804D036
:10362000E01DFE30FFF77FFF03E0E01DFE30FFF7F7
:103630005EFF641C012CEDDD002411E030462041CA
:10364000C007C00F002805D02046FF300830FFF724
:103650006AFF04E02046FF300830FFF748FF641C93
:10366000012CEBDD002411E038462041C007C00FDB
:10367000002805D02046FF300A30FFF754FF04E051
:103680002046FF300A30FFF732FF641C012CEBDDCF
:10369000002411E003982041C007C00F002805D086
:1036A0002046FF300C30FFF73EFF04E02046FF309D
:1036B0000C30FFF71CFF641C012CEBDDFFBD30B5A7
:1036C00089B0054620220021090200310902583143
:1036D0000902E83101A8FCF731FD002411E0284679
:1036E000E040C007C00F002805D0610001AA505A71
:1036F000FFF7FDFE04E0610001AA505AFFF713FF37
:10370000641C0F2CEBD909B030BD30B589B005462B
:103710002022002109020031090259310902083131
:1037200001A8FCF70BFD002411E02846E040C0078B
:10373000C00F002805D0610001AA505AFFF7F3FE20
:1037400004E0610001AA505AFFF7D1FE641C0F2C5F
:10375000EBD909B030BD00B5FF20F630FFF7C7FE4A
:10376000FF20F730FFF7C3FEFF20F830FFF7BFFE62
:10377000FF20F930FFF7BBFEFF20FA30FFF7D3FE42
:10378000FF20FB30FFF7B3FEFF20FC30FFF7CBFE3E
:10379000FF20FD30FFF7ABFEFF20FE30FFF7C3FE3A
:1037A000FF20FF30FFF7BFFE01200002FF30FFF7D0
:1037B000BAFE01204002FFF7B6FE022000020130EF
:1037C000FFF795FE022000020230FFF790FE022074
:1037D00000020330FFF7A7FE81208000FFF7A3FE61
:1037E0000020522109022831090408600320000248
:1037F0009230FFF798FE00BDF3B581B00F46002070
:103800000090019EB800019E8219314600200002FE
:10381000003000025C3000021C3001F093FA0020FE
:103820000002003000025C3000024C3001F08AFAE5
:1038300000240CE0002507E0A00030580121A94039
:103840008843A10070506D1C202DF5DB641CBC4228
:10385000F0D3002423E000251EE0A0003058012111
:10386000A940084000280FD0A00033582A4621461E
:1038700000200002003000025C300002643001F0E1
:1038800061FA0098401C0090A00030580121A94026
:103890000843A10070506D1C202DDEDB641CBC426F
:1038A000D9D3002425E0002520E0A00030580121D4
:1038B000A94008400121A94088420FD0A0003358F8
:1038C0002A46214600200002003000025C3000023F
:1038D000943001F037FA0098401C0090A000305856
:1038E0000121A9408843A10070506D1C202DDCDB14
:1038F000641CBC42D7D37C1E23E01F251EE0A00021
:1039000030580121A940084000280FD0A0003358AA
:103910002A46214600200002003000025C300002EE
:10392000C43001F00FFA0098401C0090A0003058FD
:103930000121A9400843A10070506D1E002DDEDA60
:10394000641E002CD9DA7C1E25E01F2520E0A00093
:1039500030580121A94008400121A94088420FD0D8
:10396000A00033582A462146002000020030000201
:103970005C300002F43001F0E5F90098401C009042
:10398000A00030580121A9408843A10070506D1E4D
:10399000002DDCDA641E002CD7DA00241CE00025A0
:1039A00017E0A00030580121A940084000280FD09E
:1039B000A00033582A4621460020000200300002B1
:1039C0005D300002243001F0BDF90098401C0090E9
:1039D0006D1C202DE5DB641CBC42E0D300200002FE
:1039E000003000025D3000025430009901F0AAF965
:1039F0000098FEBD30B50546002411E02846204160
:103A0000C007C00F002805D02046FF30ED30FFF77B
:103A10008AFD04E02046FF30ED30FFF768FD641CAE
:103A2000062CEBD930BD30B50546002413E02846FE
:103A30002041C007C00F002806D0032109021D3114
:103A4000081BFFF770FD05E0032109021D31081B6B
:103A5000FFF74DFD641C042CE9D9052413E028462A
:103A60002041C007C00F002806D0032109021D31E4
:103A7000081BFFF73CFD05E0032109021D31081B6F
:103A8000FFF751FD641C062CE9D930BD30B5054661
:103A9000002413E028462041C007C00F002806D0AC
:103AA0000321090295316018FFF73DFD05E0032170
:103AB000090295316018FFF71AFD641C042CE9D93E
:103AC000052413E028462041C007C00F002806D077
:103AD0000321090295316018FFF709FD05E0032174
:103AE000090295316018FFF71EFD641C062CE9D908
:103AF00030BD30B50546002413E028462041C007FC
:103B0000C00F002806D003210902A131081BFFF7CE
:103B10000AFD05E003210902A131081BFFF7E7FCBC
:103B2000641C042CE9D9A806C00F002804D0E720A3
:103B30008000FFF7DCFC03E0E7208000FFF7F3FCE8
:103B40006806C00F002805D0022000022D30FFF7C4
:103B5000CEFC04E0022000022D30FFF7E4FC30BD73
:103B600030B5054600240FE02846E040C007C00FEE
:103B7000002804D020466B30FFF7D5FC03E0204638
:103B80006B30FFF7B4FC641C0F2CEDDD30BD30B59D
:103B9000054600240FE02846E040C007C00F00287B
:103BA00004D020467C30FFF7BEFC03E020467C308A
:103BB000FFF79DFC641C072CEDDD30BD30B50546DC
:103BC00000240FE02846E040C007C00F002804D0C2
:103BD0002046D130FFF7A7FC03E02046D130FFF7A5
:103BE00086FC641C0F2CEDDD30BD70B505460E461D
:103BF00000240AE02046FF30D930FFF778FC204649
:103C0000FF301730FFF773FC641C0D2CF2DB00242F
:103C100005E0FF21E531081BFFF785FC641CAC4281
:103C2000F7D9002405E02046FF301730FFF75FFC8E
:103C3000641CB442F7D970BD70B505460E46002429
:103C400011E03046E040C007C00F002805D02046F4
:103C5000FF30C530FFF767FC04E02046FF30C53079
:103C6000FFF745FC641C042CEBDD002411E0284622
:103C7000E040C007C00F002805D02046FF30CA3002
:103C8000FFF751FC04E02046FF30CA30FFF72FFC5D
:103C9000641C042CEBDD70BD70B505460E46002497
:103CA00011E03046E040C007C00F002805D0FF21DA
:103CB0005931081BFFF737FC04E0FF215931081B7D
:103CC000FFF715FC641C042CEBDD002411E02846F2
:103CD000E040C007C00F002805D0FF215431081B69
:103CE000FFF721FC04E0FF215431081BFFF7FFFB25
:103CF000641C042CEBDD70BD70B505460E46002437
:103D000011E02846E040C007C00F002805D020463B
:103D1000FF30E630FFF707FC04E02046FF30E630D6
:103D2000FFF7E5FB641C042CEBDD002411E03046BA
:103D3000E040C007C00F002805D0FF211631081B46
:103D4000FFF7F1FB04E0FF211631081BFFF7CFFB63
:103D5000641C052CEBDD70BDF8B5FF242402FC3497
:103D60002404650D2020000200300002063000020D
:103D70007C30006A2040202109020031090206310E
:103D800009027C3108620846C06B2840C8630846B7
:103D9000006A4021090250310902FF310902E03175
:103DA000A14308432021090200310902063109021A
:103DB0007C310862422000022130000288304862D3
:103DC0008820000204300004313088621120000293
:103DD0003B300002403000028130C8620220000205
:103DE0007E300002813000020230086303200002AE
:103DF000ED30000248300002443048636020000289
:103E00000130000488630846C06BFF210902E031DD
:103E100009022E3109020331A94308432021090276
:103E200000310902063109027C31C863FF20A93044
:103E3000FFF75DFBFF20AA30FFF775FB3F21084627
:103E4000FFF75AFF07210846FFF7CFFE002108467B
:103E5000FFF7F2FE00210846FFF71EFF0020FFF7E4
:103E600046FB0120FFF743FB6020FFF740FBFF20EC
:103E70001030FFF73CFBFF20EC30FFF738FB6420ED
:103E8000FFF735FB6520FFF732FB6620FFF72FFBBE
:103E90006120FFF748FB0020522109023831090454
:103EA0000860A02000020F30522109023C310904B1
:103EB00008606720FFF737FB0B260227F002F901A5
:103EC0000843522109020C310904086005200090C2
:103ED000522109022431090400980860FF200E30A5
:103EE000FFF705FBFF200F30FFF701FB0020FFF776
:103EF00081FDF020FFF717FB5D20C000FFF713FBEB
:103F000002200002E930FFF70EFB02200002EA3037
:103F1000FFF709FB01205221090240310904086022
:103F2000F8BD70B5FF242402FE342404650D202062
:103F3000000200300002063000027C30006A20409F
:103F40002021090200310902063109027C31086290
:103F50000846C06B2840C8630846006AFF21090272
:103F6000F031A14308432021090200310902063142
:103F700009027C31086242200002213000028830B0
:103F800048628820000204300004713088621020EA
:103F900000020C300002403000028130C86218205C
:103FA00000028130000202300863012000027F30ED
:103FB0000002C83000024430486370200002013023
:103FC0000004013088630846C06BFF210902E0311C
:103FD000090208310902A9430843202109020031DE
:103FE0000902063109027C31C8630020FFF79BFA01
:103FF0000120FFF798FA0D20FFF7B2FD2620FFF70A
:10400000C6FD5020FFF7DAFDEE20FFF78CFAEF2017
:10401000FFF789FAFF200E30FFF769FAFF200F3013
:10402000FFF765FA8420FFF77EFA0526522000028A
:104030002430000406600A210020FFF7FDFD002067
:10404000FFF7D8FCF020FFF76EFA01204003522161
:104050000902103109040860F002086070BD10B553
:104060000A467F238343590120231B0200331B028E
:1040700006331B027C339B6F0F242402E834A343D6
:104080002024240200342402063424027C34A36752
:1040900023469B6F0B43A36710BD7F2282435103CE
:1040A0002022120200321202063212027C32926F79
:1040B0007F235B039A4320231B0200331B0206333A
:1040C0001B027C339A671A46926F0A439A677047BD
:1040D00010B5F02303401909020720231B02003307
:1040E0001B0206331B027C339B6F1B091B01202420
:1040F000240200342402063424027C34A3672346BD
:104100009B6F0B43A3672346DB6F1B011B09E36710
:104110002346DB6F1343E36710BD00B57D20C0006D
:10412000FFF701FA03200002E930FFF7FCF9032052
:104130000002EA30FFF7F7F903200002EB30FFF747
:10414000F2F98020522109022C31090408607F20F5
:10415000FFF7BEFF3F20FFF7A0FF00217F20FFF702
:104160007EFF00BD70B50346002400200325AD028C
:104170001D402C010F252D031D402D0B28433F25ED
:104180002D011D40284395022843CD0228431D07D9
:104190002D0C2843E543522636021436360435608A
:1041A000C5435226360218363604356070BD0028E5
:1041B00041D12021090200310902063109027C3176
:1041C000C96F042211432022120200321202063269
:1041D00012027C32D1671146C96F0222914320221C
:1041E000120200321202063212027C32D1671146EC
:1041F000803109680122D2071143202212020032C5
:10420000120206321202FC32116011468039C96F67
:1042100049084900803AD167114680310968072270
:104220001207114320221202003212020632120239
:10423000FC32116050E101283FD1202109020031F8
:104240000902063109027C31C96F02221143202282
:10425000120200321202063212027C32D16711467B
:10426000C96F042291432022120200321202063248
:1042700012027C32D167114680310968C2071143AE
:10428000202212020032120206321202FC321160A7
:1042900011468039C96F8143803AD1671146803118
:1042A000096807221207114320221202003212026B
:1042B00006321202FC3211600EE1022845D12021A3
:1042C000090200310902063109027C31C96F04225A
:1042D00011432022120200321202063212027C32F4
:1042E000D1671146C96F0222914320221202003287
:1042F0001202063212027C32D167114680310968FF
:104300004A0052082021090200310902063109023F
:10431000FC310A608039C96F012211432022120248
:1043200000321202063212027C32D167114680310D
:1043300009680722120711432022120200321202DA
:1043400006321202FC321160C6E0032840D120215F
:10435000090200310902063109027C31C96F0422C9
:1043600011432022120200321202063212027C3263
:10437000D1671146C96F02229143202212020032F6
:104380001202063212027C32D1671146803109686E
:10439000C207114320221202003212020632120218
:1043A000FC32116011468039C96F49084900803AD2
:1043B000D16711468031096801229207914320227A
:1043C00012020032120206321202FC32116083E045
:1043D00004283FD1202109020031090206310902D7
:1043E0007C31C96F042211432022120200321202D2
:1043F000063212027C32D1671146C96F0222914304
:104400002022120200321202063212027C32D167DE
:1044100011468031096842071143202212020032FE
:10442000120206321202FC32116011468039C96F45
:1044300049084900803AD167114680310968C206AF
:104440009143202212020032120206321202FC3282
:10445000116041E005283FD1202109020031090205
:10446000063109027C31C96F042211432022120255
:1044700000321202063212027C32D1671146C96F35
:10448000022291432022120200321202063212024C
:104490007C32D167114680310968C207114320225E
:1044A00012020032120206321202FC321160114670
:1044B0008039C96F49084900803AD1671146803177
:1044C000096803225207914320221202003212028D
:1044D00006321202FC321160704710B50A467F2383
:1044E0008343590120231B0200331B0206331B02A6
:1044F0007C339B6F7F246403A34320242402003475
:104500002402063424027C34A36723469B6F0B43AA
:10451000A36710BD10B5044600213F20FFF7DDFF63
:104520000420FFF744FE01221146FF20E130FFF78F
:1045300019FEFD208000FEF7F6FF10BD70B50346A2
:104540000C467F2529267606356052252D02183522
:104550002D04286852252D021C352D0429680D04D0
:104560002D181D6052252D0228352D04286852254E
:104570002D022C352D0429680D042D182560522597
:104580002D0230352D04286852252D0234352D0496
:1045900029680D042D181560002535603F252D0272
:1045A000FF35356070BD52200002403000040068C5
:1045B000012189020840002807D052200002403023
:1045C000000400888005800D70470020FCE7522021
:1045D00000025430000400787047522000023C3042
:1045E000000400780007000F7047F0B505460E463E
:1045F0001746002411E028462041C007C00F0028BC
:1046000005D0FF21B031081BFEF78DFF04E0FF212C
:10461000B031081BFEF76BFF641C042CEBD900249F
:1046200011E030462041C007C00F002805D0FF210F
:10463000B631081BFEF777FF04E0FF21B631081BF7
:10464000FEF755FF641C042CEBD9012F05D1022085
:104650000002D630FEF767FF04E002200002D630E9
:10466000FEF745FFF0BD70B505460E46002413E089
:104670003046E040C007C00F002806D003210902E1
:1046800066316018FEF74FFF05E00321090266312D
:104690006018FEF72CFF641C032CE9DDF006C00F48
:1046A000002805D0032000026A30FEF720FF04E056
:1046B000032000026A30FEF736FF002411E028468E
:1046C000E040C007C00F002805D0D721890060183E
:1046D000FEF729FF04E0D72189006018FEF707FFE5
:1046E000641C012CEBDD022413E02846E040C007E7
:1046F000C00F002806D00321090269316018FEF7B7
:10470000F6FE05E00321090269316018FEF70BFF90
:10471000641C042CE9DD70BD2820522109025831A7
:104720000904086020200860704710B500210022AD
:1047300025213BE0002236E08B00202424020034B7
:104740002402063424027C34E3580124944023409C
:10475000002B01D1212000E0202052231B025833DE
:104760001B04186002240346A343184652231B026D
:1047700058331B0418600423184352231B02583378
:104780001B04186004240346A343184652231B024B
:1047900058331B0418600223184352231B0258335A
:1047A0001B041860521C202AC6DB491E0029C1DAEE
:1047B00010BDF7B584B00546E806C00E039000BFF3
:1047C0000598C006C00E029000BF0698C006C00E35
:1047D000019000BF0398FEF772FE009000BF0298A0
:1047E000FEF76DFE064600BF0198FEF768FE044620
:1047F00000BF0023002700BF00BF00980090782072
:10480000204040020343F00003430098C0080343E4
:1048100080202040C0090743522000021C300004C1
:1048200003605220000220300004076007B0F0BD92
:10483000F1B584B0002700200390172002908C204F
:1048400001900199049800F08EFB1330C6B20199D3
:10485000049800F088FB04910299049800F083FB0F
:104860004100411803980818C5B20299049800F055
:104870007AFB022800DB00BF0299049800F073FB6A
:10488000C819C4B20F2C00DD641C224629463046EC
:10489000FFF78FFF23462A463146002000020030F2
:1048A00000025D300002783000F04CFA05B0F0BD37
:1048B00001460020CA07120E104302220A4052018C
:1048C000104304220A40D200104308220A4052003A
:1048D000104310220A405208104320220A40D208F6
:1048E000104340220A405209104380220A40D20954
:1048F00010437047F0B585B006460C4615461F4676
:10490000202000020030000206300002FC308661E8
:10491000183044608560C760202109020031090217
:104920000731090214310A9808610846183880686E
:10493000802109061F31084003463046FFF7B8FFC3
:104940000006C00E04902046FFF7B2FF0006C00E1E
:1049500003902846FFF7ACFF0006C00E02903846D1
:10496000FFF7A6FF0006C00E01900A98FFF7A0FF10
:104970000006C00E0090049880060343039840058B
:1049800003430298000403430198C00203430098C4
:104990008001034320200343202000020030000256
:1049A00006300002FC30836005B0F0BD38B5FEF77C
:1049B0000EFCFCF7FFFBFDF704F9FEF7DEFAFEF74D
:1049C000CAFE0023012219461846FEF71DFE0623E3
:1049D000002219461846FEF7C2FDFF200130FEF7FF
:1049E00094FEFF200002FF30FEF769FE0420000263
:1049F0007B30FEF798FD20221202003212020632AE
:104A00001202FC32D16A106BFFF72DFE0420000267
:104A10007F30FEF788FD022000022930FEF783FD7B
:104A20003120FEF780FD3020FEF77DFD2F20FEF7C0
:104A30005EFD2E20FEF777FD2D20FEF758FD2C2081
:104A4000FEF771FD2B20FEF76EFD2A20FEF76BFDB1
:104A5000042000028430FEF766FD022000026F3061
:104A6000FEF761FD2920FEF75EFD022403E02046EB
:104A7000FEF759FD641C092CF9DBFFF76DF9FFF710
:104A80004CFB202212020032120206321202FC32C9
:104A9000916C506C0022FFF7A8FD2020000200302E
:104AA000000206300002FC30C06B009020200002A3
:104AB0000030000206300002FC30836B1F21426B85
:104AC0000846FFF717FF042000025A30FEF72BFDBF
:104AD0009620FFF7ADFE7D200001FFF71BFDFFF7DD
:104AE00024FEFFF719FE38BDF8B50020292149063C
:104AF00008603F200002FF300860012700E07F1CB3
:104B0000C320000250308742F9DB7F20292149066B
:104B1000086052200002183000040468522000028D
:104B20001C30000405682804061908460468522051
:104B30000002043000040568280400190090700386
:104B4000009900F006FAF8BD18B5202000020030E8
:104B500000020730000214300069202424020034CF
:104B600024020734240214340090E368A2686168C8
:104B7000183CA069FFF7BEFE18BD70B503460C4691
:104B80007F2529267606356052252D0218352D04FD
:104B9000286852252D021C352D0429680D042D1876
:104BA0001D6052252D0220352D04286852252D0226
:104BB00024352D0429680D042D18256035462868F4
:104BC00052252D0204352D0429680D042D18156079
:104BD000002535603F252D02FF35356070BD10B5CD
:104BE00000210BE003689B0F0468E40E6340DA07C2
:104BF000D20F03685B0013430360491C0829F1DBF3
:104C000010BD2020000200300002063000027C307F
:104C1000806F012109058843202109020031090222
:104C2000063109027C31886770472020000200307D
:104C30000002063000027C30806F01210905084324
:104C40002021090200310902063109027C318867FE
:104C500070472020000200300002063000027C3045
:104C6000006C0921C906884320210902003109028C
:104C7000063109027C3108647047202000020030B0
:104C80000002063000027C30006C0921C90608438E
:104C90002021090200310902063109027C31086431
:104CA0007047202000020030000206300002FC3075
:104CB00000680121C90408432021090200310902CA
:104CC00006310902FC3108607047202000020030E4
:104CD000000206300002FC3000680121C90488434C
:104CE000202109020031090206310902FC31086065
:104CF0007047202000020030000206300002FC3025
:104D00000068032149048843202109020031090277
:104D100006310902FC310860704720200002003093
:104D2000000206300002FC300068032149040843F9
:104D3000202109020031090206310902FC31086014
:104D4000704770470FB4054910B503AA029800F0E8
:104D500011FD10BC08BC04B018470000140000206E
:104D6000F8B50E460446002020622046E1688847D8
:104D7000002829D0252802D06268A16820E0E168D7
:104D800020460027884705001ED0284641381928AC
:104D900002D80127FF0220353246204627602946E7
:104DA000FBF7ACF9002808D0012804D0F61DF6085E
:104DB000F6000836D9E7361DD7E762682846A168AD
:104DC0009047206A401CCFE7206AF8BDF7B5002560
:104DD00075291068009914A611D0C046C046002855
:104DE00002DA404211A608E0009909688A0701D555
:104DF0000FA602E0490704D50EA6012501E0C04632
:104E0000C046009F0024243704E000F0C7FC303186
:104E10003955641C0028F8D12B46324621460098AB
:104E200000F04FFCFEBD0000000000002D0000005F
:104E30002B0000002000000070B504460D462146FE
:104E40001068C046C0462188090502D50F4A7A4439
:104E500002E00E4A7A440E3223460021243305E054
:104E600006070009360F965D5E54491C0028F7D1ED
:104E700020780023000705D5702D03D0002901D02C
:104E800002231132204600F01CFC70BDD60A00003F
:104E9000F8B5042A2CD3830712D00B78491C037071
:104EA000401C521E83070BD00B78491C0370401C1A
:104EB000521E830704D00B78491C0370401C521EFD
:104EC0008B079B0F05D0C91ADF002023DE1B08C902
:104ED0000AE0FBF733F9F8BD1D4608C9FD401C4642
:104EE000B4402C4310C0121F042AF5D2F308C91A8B
:104EF000521EF0D40B78491C0370401C521EEAD499
:104F00000B78491C0370401C012AE4D40978017015
:104F1000F8BD01E004C0091F0429FBD28B0701D5AD
:104F20000280801CC90700D00270704700290BD096
:104F3000C30702D00270401C491E022904D3830714
:104F400002D50280801C891EE3E70022EEE70022E2
:104F5000DFE7002203098B422CD3030A8B4211D3D3
:104F600000239C464EE003460B433CD400224308FA
:104F70008B4231D303098B421CD3030A8B4201D3EA
:104F800094463FE0C3098B4201D3CB01C01A524182
:104F900083098B4201D38B01C01A524143098B42D2
:104FA00001D34B01C01A524103098B4201D30B01BB
:104FB000C01A5241C3088B4201D3CB00C01A5241E0
:104FC00083088B4201D38B00C01A524143088B42A5
:104FD00001D34B00C01A5241411A00D2014652413E
:104FE000104670475DE0CA0F00D04942031000D35D
:104FF0004042534000229C4603098B422DD3030AB2
:105000008B4212D3FC22890112BA030A8B420CD3C1
:10501000890192118B4208D3890192118B4204D3EA
:1050200089013AD0921100E08909C3098B4201D36A
:10503000CB01C01A524183098B4201D38B01C01AA4
:10504000524143098B4201D34B01C01A524103091B
:105050008B4201D30B01C01A5241C3088B4201D3CA
:10506000CB00C01A524183088B4201D38B00C01A77
:105070005241D9D243088B4201D34B00C01A52414E
:10508000411A00D20146634652415B10104601D3DB
:105090004042002B00D54942704763465B1000D365
:1050A000404201B50020C046C04602BD704770476F
:1050B00070470000F0B50C46871A9C410D46861AD1
:1050C0009D4103D2C01BA141D21963410D0D1F0D9B
:1050D000C94EEC1BAE435CD07F057F0D0026002F30
:1050E00051D02D05AC46A943DD020123ED0A1B0575
:1050F0001D4320231B1B24D41746E7403818714159
:105100002F46E740CC199D402818314661410C0DCF
:1051100027D161449A4013D50023401C59415200C5
:105120000ED14008400001224B005205D34207D364
:1051300005204007C14201D5B04900E0B0493046E2
:10514000F0BD6B00002A00D001229A181F23203CDA
:105150001B1B01D5002302E0E540281871410C0D0E
:10516000D7D0012424050919C407CD0740084908F0
:10517000E40F28436144002CD5D00024401C614139
:105180009A40D0D1CDE76A05520DD9D1C90FC907D0
:10519000D5E79C4D4E00002801D0012400E00024FA
:1051A00034195F00002A01D0012600E00026BE1954
:1051B000954FAC420CD8AE420AD8B44206D0012575
:1051C0006D05EC42BCD010461946F0BD9942FCD0AA
:1051D00000203946F0BDF0B51FB40C460F46811AC9
:1051E0009F412546861A9D4106D20125ED076F4055
:1051F000401ABC4152187B41210D1E0D8D1BAC463F
:105200007D4D8D437ED075056D0D7CD00D05AE4670
:10521000AC431B031B0B794D52429D412023664634
:105220009B1B14D31746F740381800260090744192
:1052300060462F460741E41900989D4028186641B2
:1052400016D4714671189A4025D5012320E0931891
:105250002A466A415200002B00D0521C1E23203ED9
:105260009B1B002B61DD3541EE1728186641E8D500
:10527000001876415B1C9A4000D3401C4B05F31884
:105280001524E34010D3002B52D071467118D30F70
:10529000C01802D3491C05B0F0BD0123DB079A42B8
:1052A000F9D140084000F6E701225205B21801D1B9
:1052B000002853D00123CC0ADB029943891E002A1F
:1052C00008D1020C03D0020C0004103902E002469F
:1052D000002020390023550B05D112020823550B5D
:1052E00001D152010D23550C01D112011B1DD50C0A
:1052F00001D192009B1C150D01D152005B1C202591
:10530000EE1A01E02CE022E00546F54015439840F6
:10531000CA1AE10769181305C918002ABBDA032065
:1053200040070818C10FC9070FE071466118B2E7BE
:10533000F10740080843711071444A000CD0012362
:105340005B059A42A7D2C90FC9070020A3E7490508
:10535000490D26D1002001E00028F4D100219AE770
:10536000284D6600002801D0012100E000217118BD
:105370005F00002A01D0012600E00026BE19224F5E
:10538000A94210D8AE420ED8B14208D001256D0511
:10539000E94206D01946A802414010467BE79C42EC
:1053A00001D0214677E70020394674E710B50C4656
:1053B0005C4005D50124E4076340FFF70CFF10BDF6
:1053C000FFF778FE10BD30B40C465C4004D50124D4
:1053D000E407634030BC6DE630BCFCE670B50124E8
:1053E000E40761400D465D4002D4FFF763FE70BDE7
:1053F0006340FFF7F0FE70BDFF0700000000F0FF04
:105400000000F07F0000E0FF0000F87F30B50346A9
:10541000CA02400D1043164D164C0A1502D0204307
:10542000002A06DBAA1A002A12DDD040FF2A0BDC74
:1054300030BD5205520D01D140004008AA1A07D4D0
:10544000D0404042FF2A01DD002030BD0028FCDDB5
:105450004A00002B01D0012000E00020101801229A
:105460005205D042F0D8C817C043604030BD00009C
:105470001E04000000000080F0B58B4C0F0925468B
:1054800089B0BD437BD01D092646AE43FAD00E46F7
:105490005E402740F60F3E43254071D02401214253
:1054A000FBD0FF24AD19A4042D1B039501252D0568
:1054B000DB02DB0AC9022B43C90A29431E01090189
:1054C000040F130F050121431701880B8203914339
:1054D0002D098C46A90B1E438A039543B30B9A03EF
:1054E00096433F09BA0B9403A74302962E467E4388
:1054F0000497B6464E19D7190C46019654430597A2
:105500007E43371B7646BF1B3601B646BE0B3619A7
:1055100000967646BC043719009C01D3641C0094A5
:105520006400002F01D001263443029E049F75437E
:1055300066467E430496760034196E003419009452
:10554000029C019E1C196643751BAE460694654677
:105550004519059C05956C43594375460891691A90
:105560000191049E01465143A41B0491611A009CC1
:105570000791E10605D061090122114302E072E0C2
:105580006EE06109089D00272C0A2D066918049D0C
:105590007C412A0A2D066918019D6241AC0DAD02BD
:1055A0006D185441079A910D920255196141029A62
:1055B000644658435443069B059A5A43121A131BD8
:1055C0009A0E9B015B187A41010B0005C3185141EB
:1055D000220A200644195A419A4200D2491C01204D
:1055E0004002814203D315230226F64302E014232E
:1055F0000326F6432020C51AA9401746AF40DA40DB
:105600000A4320460399D840091473181905511804
:10561000039A3843D2075140AC4009D0012294404C
:1056200006D30022401C5141002C01D1400840000B
:105630001E4A934212D3012203989206904207DB3E
:105640000520400709181A480143C012414004E0F0
:10565000032040070818C10FC907002009B0F0BD9A
:105660000020F107FAE705180C464C4111486D423D
:10567000A04115D394181A465A410E4864429041ED
:105680000ED301204A004005824209D35A008242CB
:1056900006D35940C90F084AC90700201143DDE766
:1056A00000200649DAE700000000FF07FE070000BF
:1056B000FFFFFF7F0000E0FF0000F07F0000F87FA9
:1056C0007047FFB504460D4681B024300090216834
:1056D000880604D51022E0699143216000E0012092
:1056E000A84201DD471B00E000270498A1697A1950
:1056F0001018081AA0612078C00602D42046C046BF
:10570000C046002608E003986268A168805D904763
:10571000206A401C761C206204988642F3DB2078C5
:10572000C0060AD52046C046C04606E06268A168A9
:1057300030209047206A401C206238467F1E002897
:10574000F4DC07E000986268A168405D9047206A39
:10575000401C206228466D1E0028F3DC2046C0460F
:10576000C0462078000602D5022005B0F0BD012019
:10577000FBE70000084B70B50D467B4400F027F8AE
:1057800004462846FBF7E2FC002802D00020C04374
:1057900070BD204670BD0000EFB9FFFF01468008D4
:1057A000081A02091018020A1018020C1018C00872
:1057B000820012185200891A01E0401C0A390A2995
:1057C000FBD2704701694A1C02610878704700B536
:1057D0008FB002910021059105490193794403910D
:1057E000114604906846FFF7BBFA0FB000BD0000F9
:1057F000E5FFFFFF754600F025F8AE460500694657
:105800005346C008C000854618B020B5FBF78AFC97
:1058100060BC00274908B6460026C0C5C0C5C0C543
:10582000C0C5C0C5C0C5C0C5C0C5403D49008D4646
:10583000704710B50446C046C0462046FAF778FCCB
:1058400010BD00000048704748070020556B7D914F
:1058500071B14373CC31328D04EE0CE872F924DD62
:105860006DD05B662A800000000000000000000090
:10587000000000000000000000000000556B7D915A
:1058800071917B73CC31328D040E7388523CBBCC4A
:105890002613000022038803A1030D01B503B20102
:1058A00071014202C701CA038B0029014B026D003E
:1058B00075019F00210385039C030B01AC03AD011F
:1058C0006C013902BF01B703880022013C026A0063
:1058D0006A019A001F0000001F0000001D00000068
:1058E00002000000020000006B046D046F047104EC
:1058F0007404760478047A045B045D045F04610434
:105900006404660468046A046C046E04700472041F
:1059100073047504770479045C045E046004620413
:105920006304650467046904303132333435363733
:1059300038394142434445464030580030313233D3
:1059400034353637383961626364656640307800D3
:10595000496E697469616C697A696E6720424C4569
:105960002054582E0D0A00006379636C657320255E
:10597000640D0A000D0A5445535420444F4E450D02
:105980000A00000043616C6962726174696F6E2085
:10599000636F6D706C6574650D0A000048463D25A7
:1059A000642D2564202020324D3D25642D25640082
:1059B0002C25642C25642020204C433D25642D2576
:1059C000642020200000000049463D25642D256408
:1059D0000D0A00007472616E736D6974000000003E
:1059E0007265636569766500636F617273653D25F5
:1059F000642C206D6964646C653D25642C206669A7
:105A00006E653D25640D0A0053746F7070696E6792
:105A10002072782F74782061732077652068617612
:105A2000652072656365697665642F7472616E7353
:105A30006D6974746564202564207061636B65749E
:105A4000730A00005265636569766564205061637E
:105A50006B65742E20436F6E74656E74733A20000C
:105A6000256420000A00000025580D0A00000000EF
:105A700041444320696E7465727275707420656E5E
:105A800061626C65643A20307825782E0A00000047
:105A900041444320696E7465727275707420646944
:105AA0007361626C65643A20307825782E0A0000B4
:105AB00041444320636F6E76657273696F6E206335
:105AC0006F6D706C6574652E0A0000004578746512
:105AD000726E616C20496E746572727570742047C5
